:020000040800F2
:100000001807002091010008AF12000845120008EF
:10001000AD1200080F060008DD1400080000000003
:10002000000000000000000000000000B312000803
:100030001106000800000000B1120008B512000807
:10004000AB010008AB010008AB010008AB010008E0
:10005000AB010008AB010008AB010008AB010008D0
:10006000AB010008AB010008AB010008AB010008C0
:10007000AB010008AB010008AB010008AB010008B0
:10008000AB010008AB010008AB010008AB010008A0
:10009000AB010008AB010008AB010008AB01000890
:1000A000AB010008AB010008AB010008AB01000880
:1000B000AB010008AB010008AB010008AB01000870
:1000C000AB010008AB010008AB010008AB01000860
:1000D000AB010008C9140008AB010008AB0100081F
:1000E000AB010008AB010008AB01000800F002F80A
:1000F00000F03FF80AA090E8000C82448344AAF183
:100100000107DA4501D100F034F8AFF2090EBAE880
:100110000F0013F0010F18BFFB1A43F0010318473B
:10012000241C0000441C0000103A24BF78C878C189
:10013000FAD8520724BF30C830C144BF04680C60ED
:10014000704700000023002400250026103A28BF35
:1001500078C1FBD8520728BF30C148BF0B60704739
:10016000782900F07180002070471FB51FBD10B5C1
:1001700010BD00F012FA1146FFF7F7FF01F018FB6F
:1001800000F030FA03B4FFF7F2FF03BC00F038FAD6
:100190000948804709480047FEE7FEE7FEE7FEE71B
:1001A000FEE7FEE7FEE7FEE7FEE7FEE70448054957
:1001B000054A064B7047000017130008ED000008C1
:1001C0001801002018070020180300201803002041
:1001D0000FB41CB5074B06AA7B44694600900598EE
:1001E00000F0C3F90020694600F0D2F91CBC5DF8AC
:1001F00014FB0000B503000070B504468569006873
:10020000C10601D5302600E02026C00707D070BD0A
:10021000D4E9012130469047206A401C20626D1EBF
:10022000F6D570BD70B5044685690078C00707D162
:1002300070BDD4E9012120209047206A401C206233
:100240006D1EF6D570BD000070B504460D46214602
:100250001068AFF300802188090502D50F4A7A445F
:1002600002E00E4A7A440E32002104F1240305E034
:1002700000F00F060009965D5E54491C0028F7D176
:1002800020780023000704D5702D02D009B1022385
:1002900011322046BDE8704000F009B9A81A0000EC
:1002A0002DE9F05F894604464FF0000ADFF824B1DB
:1002B000FB44C0F820A02046E168884700287DD094
:1002C000252806D0D4E901219047206A401C2062ED
:1002D000F1E700255F462046E1688847202806466A
:1002E00007DB312E05D2B81910F8200C08B10543F0
:1002F000F1E7A80701D525F00405C4F81CA00027E4
:10030000C4F818A02A2E09D0304601F0F8F838B306
:1003100004EB8708303EC8F8186019E059F8041B50
:10032000204604EB87029161E1688847012F064669
:1003300018D1E069002820DA25F020051DE0D8F862
:10034000180000EB800006EB40003038C8F81800B9
:100350002046E1688847064601F0D1F80028EED132
:10036000012F0AD02E2E08D12046E16888477F1C35
:100370000646022F45F02005C4DBA069002803DAF9
:10038000404245F00105A061E80701D025F01005C5
:10039000A6B1A6F14100192802D8203645F400651F
:1003A0004A463146204625604D46FFF7D9FE60B1EA
:1003B000012807D0ED1D25F0070000E007E000F15F
:1003C000080978E705F1040975E730467AE7206AFD
:1003D000BDE8F09F7E1A00004FF0000200B5134602
:1003E00094469646203922BFA0E80C50A0E80C5055
:1003F000B1F12001BFF4F7AF090728BFA0E80C5006
:1004000048BF0CC05DF804EB890028BF40F8042BFE
:1004100008BF704748BF20F8022B11F0804F18BF6B
:1004200000F8012B704700004FF0013C50F8042BFE
:1004300051F8043B9A4221D1A2EB0C03934313EAF7
:10044000CC1317D150F8042B51F8043B9A4215D124
:10045000A2EB0C03934313EACC130BD150F8042BFB
:1004600051F8043B9A4209D1A2EB0C03934313EADF
:10047000CC13DBD04FF00000704700BFD01A01BA98
:10048000B1FA81F101F0180122FA01F0CB40C1F17B
:100490002001DBB2C0B2C01A2CFA01F3D11A914389
:1004A00011EAC311E6D170477047704770472DE9D4
:1004B000F0470D4699469246044600F1240801682B
:1004C000880604D5E06921F01001216000E00120D8
:1004D000A84201DD471B00E00027A1697A1902EB61
:1004E0000900081AA0612078C00602D42046FFF750
:1004F00083FE002608E0D4E901211AF8060090479F
:10050000206A401C761C20624E45F4DB2078C00631
:100510000AD52046FFF770FE06E0D4E9012130201D
:100520009047206A401C2062381EA7F10107F4DCC6
:1005300007E0D4E9012118F805009047206A401C23
:100540002062281EA5F10105F3DC2046FFF76AFEB4
:100550002078000602D50220BDE8F0870120FBE7E5
:1005600001694A1C02610878704700B58FB0CDE977
:1005700001310021059105497944CDE90310114667
:100580006846FFF78DFE0FB000BD0000E5FFFFFFDE
:100590000A6802F8010B0A607047754600F02CF8F3
:1005A000AE4605006946534620F00700854618B060
:1005B00020B5FFF7FBFDBDE820404FF000064FF0EF
:1005C00000074FF000084FF0000B21F00701AC4688
:1005D000ACE8C009ACE8C009ACE8C009ACE8C009A7
:1005E0008D46704710B50446AFF300802046BDE845
:1005F0001040FFF7C7BD000000487047B40000205E
:1006000001491820ABBEFEE7260002007047FEE756
:10061000704772B6FEE710B590F82110002202294B
:1006200005D00421816380F82020012010BD0168DD
:100630000B6823F00E030B6001680B6823F00103C5
:100640000B6090F84030C46B012101FA03F3636042
:1006500080F8211080F82020104610BD10B590F8C9
:1006600021100024022903D00421816301243DE0EC
:1006700001680A6822F00E020A6001680A6822F026
:1006800001020A601A4A0168914201D1012121E068
:10069000174A1432914201D110211BE0144A28322A
:1006A000914201D1891515E0114A3C32914201D1A4
:1006B00089140FE00E4A5032914202D14FF480313A
:1006C00008E00B4A6432914202D14FF4801101E0FC
:1006D0004FF08071064A083A5160012180F82110DC
:1006E000002180F82010416B01B18847204610BDE1
:1006F0000800024070B5044600F0FEF80546601C94
:1007000002D004480078044400F0F6F8401BA042F0
:10071000FAD370BD1C0000202DE9F84FDFF8B89126
:10072000002409F1040A0AF1040B23460F270BF1F8
:10073000040EC9E00125A5402A40AA427DD1674E9A
:10074000D1F804C0ACEB0608B44532D014DCBCF1DF
:10075000030F3AD009DCBCF1000F2AD0BCF1010F25
:100760001CD0BCF1020F31D11DE0BCF1110F17D02C
:10077000BCF1120F2AD119E0B8F5881F19D006DC98
:10078000B8F5803F15D0B8F5801F1FD111E0B8F53E
:10079000001F0ED0B8F5041F18D10AE0CB6815E091
:1007A000CB681B1D12E0CB6808330FE0CB680C331D
:1007B0000CE08B682BB1012B4FF0080303D045618F
:1007C00004E0042302E0056100E00023FF2A01D8D1
:1007D000064601E000F104064FEA840501D9A5F1BF
:1007E0002005D6F8008007FA05FC28EA0C0803FA71
:1007F00005F548EA0508C6F800804D68ED0062D5A9
:10080000374DAE6946F00106AE61AD6924F00306CE
:1008100005F001050095334D06EB050CDCF808509A
:10082000A607360F07FA06F825EA0805DFF8B880AC
:10083000404503D14FF0000817E044E0DFF8AC80FA
:10084000404502D14FF001080FE0DFF8A480404599
:1008500002D14FF0020808E0DFF89880404502D14D
:100860004FF0030801E04FF0040808FA06F848EAE0
:100870000508CCF808804D68D9F80060ED034D46B6
:1008800001D5164300E096432E604D68DAF800600B
:10089000AD03554601D5164300E096432E604D68E2
:1008A000DBF80060ED025D4601D5164300E096439B
:1008B0002E604D68DEF80060AD02754601D5164326
:1008C00000E096432E60641C0D682A46E5407FF4E4
:1008D00031AFBDE8F88F00000004014000001110A6
:1008E000001002400000014000080140000C0140DF
:1008F000001001400014014001488068704700006A
:100900001C00002070B5040004D094F83D000025C0
:1009100010B106E0012070BD84F83C50204600F084
:1009200057FC242084F83D002068C16821F4005160
:10093000C160204600F06CFD2068016921F49041FF
:1009400001612068416921F022014161206841690B
:1009500041F0080141612068C16841F40051C16063
:100960002564202084F83D0084F83E00002070BDFE
:100970000248816802781144816070471C000020A1
:10098000074810B5016841F010010160032000F034
:1009900075F80F2000F006F800F024F8002010BDD4
:1009A0000020024070B50D4D04464FF47A7128784E
:1009B000B1FBF0F00A490968B1FBF0F000F0ECFA85
:1009C00048B9102C07D200222146501E00F036F8FC
:1009D00000206C6070BD012070BD00001C00002074
:1009E000280000200C4808B5816941F001018161AF
:1009F000816901F001010091C16941F08051C1613B
:100A0000C06900F0805000900448416821F0E06126
:100A100041F00071416008BD00100240000001403B
:100A2000002809DB00F01F020121914040098000ED
:100A300000F1E020C0F8001170470000F0B40E4B48
:100A40001B680C46C3F30223C3F10705042D00D92C
:100A50000425191D072901D2002300E0DB1E012611
:100A600006FA05F1491E214099409E40761E164027
:100A70003143F0BC00F033BD0CED00E0064900F05E
:100A8000070208684FF6FF03184040EA0220034AB5
:100A900010430860704700000CED00E00000FA050C
:100AA0002DE9F0470F46050061D0434E306800F055
:100AB0000700B84209D2306820F0070038433060A0
:100AC000306800F00700B84251D128683B4C8107DC
:100AD00012D5400703D5606840F4E0606060287874
:100AE000000703D5606840F4605060606068A968E2
:100AF00020F0F000084360602878C00728D06868BC
:100B0000012810D02168022810D0890700292EDA88
:100B1000616821F0030101436160FFF7EDFE80464B
:100B200041F288390DE021688903EFE78901EDE79B
:100B3000FFF7E2FEA0EB0801494502D90320BDE81A
:100B4000F0876068696800F00C00B0EB810FEFD1AE
:100B5000306800F00700B8420BD9306820F0070079
:100B600038433060306800F00700B84201D00120FF
:100B7000E5E72878400705D56068E96820F4E0607B
:100B8000084360602878000706D56068296920F46A
:100B9000605040EAC100606000F038F86168084ABF
:100BA000C1F30311515CC84006490860064800685B
:100BB000FFF7F8FE0020C2E70020024000100240CC
:100BC000F21C0008280000202000002004480549ED
:100BD00000684968044AC1F30221515CC84070476B
:100BE0002800002000100240021D000804480549AA
:100BF00000684968044AC1F3C221515CC84070478B
:100C00002800002000100240021D000812A185B03B
:100C10000FC98DE80F0014A0144A006804905168B1
:100C2000134801F00C03042B10D0082B0ED1C1F394
:100C30008343C9031DF803000AD5516804AAC1F310
:100C40004041515C0A4A5043B0FBF1F005B0704797
:100C500008494843FAE700000203040506070809AB
:100C60000A0B0C0D0E0F10100102000000100240C4
:100C700000127A0000093D002DE9F84F040070D001
:100C80002078C04DC00749D06868C0F381000128B2
:100C900007D06868C0F38100022809D16868C003E2
:100CA00006D52868800339D560680028E7D035E08C
:100CB0006068B0F5803F0BD010B1B0F5A02F11D017
:100CC000286820F480302860286820F4802002E022
:100CD000286840F480302860606890B1FFF70CFE0F
:100CE00006460AE0286840F480202860F0E700BF4C
:100CF000FFF702FE801B642873D828688003F7D5AD
:100D00000CE0FFF7F9FD064605E000BFFFF7F4FD34
:100D1000801B6428F0D828688003F7D420789A4E86
:100D200080074FF001094FF0000839D5686810F0CE
:100D30000C0F07D06868C0F38100022809D16868E9
:100D4000C00306D42868800714D52069012808D17B
:100D500010E02069B0B1C6F80090FFF7CDFD07465E
:100D600005E00AE1FFF7C8FDC01B0228C4D82868C7
:100D70008007F7D52868616920F0F80040EAC100D3
:100D800028600DE0C6F80080FFF7B6FD074604E0D6
:100D9000FFF7B2FDC01B022823D828688007F7D4CC
:100DA000207800072CD57948A169D9B1C0F8009006
:100DB000FFF7A2FD074604E0FFF79EFDC01B0228D7
:100DC0000FD8686A8007F7D571484FF4FA51006868
:100DD000B0FBF1F0009000BF0098411E0091FAD2E4
:100DE0000EE080E0C0F80080FFF786FD074604E0D3
:100DF000FFF782FDC01B022875D8686A8007F7D408
:100E00002078400760D5E8690027C00008D4E86969
:100E100040F08050E861E869012700F080500090C0
:100E20005C480168C90513D40168834641F48071A8
:100E30000160FFF761FD824606E000BFFFF75CFD41
:100E4000A0EB0A0064284ED8DBF80000C005F5D5F9
:100E5000E06801280AD008B1052813D0286A20F0DC
:100E600001002862286A20F0040002E0286A40F0AD
:100E700001002862E06841F2883B98B1FFF73CFD31
:100E800082460BE0286A40F004002862EEE700BFCB
:100E9000FFF732FDA0EB0A0159455AD8286A8007AE
:100EA000F6D50CE0FFF728FD824605E0FFF724FDAC
:100EB000A0EB0A0159454CD8286A8007F6D41FB127
:100EC000E86920F08050E861E06988B36968C1F39F
:100ED0008101022944D00228C6F8608004D0FFF7BF
:100EE0000BFD044638E034E0FFF706FD074604E05A
:100EF000FFF702FDC01B02282BD828688001F7D419
:100F0000206AB0F5803F05D16868A16820F4003000
:100F100008436860D4E908010843696821F4741142
:100F200008436860C6F86090FFF7E6FC044606E0F8
:100F300025E000BFFFF7E0FC001B022809D8286865
:100F40008001F7D51BE000BFFFF7D6FC001B02288D
:100F500002D90320BDE8F88F28688001F4D40EE0A0
:100F60000128F7D06868226A00F48031914204D1E8
:100F7000616A00F47010884201D00120EAE7002085
:100F8000E8E70000001002400000424280044242B4
:100F9000280000200070004010B5401EB0F1807F96
:100FA00001D3012010BD4FF0E02460610F216017D4
:100FB00000F095FA0020A06107202061002010BDFC
:100FC00070477047F8B5026804461068D1685369E5
:100FD00010F00F0F4FF0000553D003F0010601F49D
:100FE000907737435FD0C20705D0CA0503D5226C7E
:100FF00042F001022264420705D5DA0703D0226CD1
:1010000042F002022264820705D5DA0703D0226C7F
:1010100042F004022264020707D501F020023243A5
:1010200003D0226C42F008022264226C002A34D0E1
:10103000800604D5880602D5204600F08DF9206888
:101040004069216CC0F38010090700D430B32046FA
:1010500000F06AF92068416949061BD5416921F011
:1010600040014161A06BA8B158494163A06BFFF7F3
:10107000F5FA002811D0A06B416B01B0BDE8F0403B
:10108000084783060FD58B060DD52046BDE8F840EE
:1010900000F062B92046FFF794FFF8BD2046FFF745
:1010A00090FF2564F8BD266B2023012E52D1C60681
:1010B00050D5CE064ED51068506800905069400655
:1010C0002AD5A16B086840680004000CEAD0A68D00
:1010D0008642E7D9E0858869202818D0D06820F4B6
:1010E0008070D0602068416921F001014161206871
:1010F000416921F04001416184F83E302563206858
:10110000C16821F01001C160A06BFFF784FAA08DC7
:10111000E18D401A81B219E0A08DE18D401A81B2B3
:10112000E08D0028BED00029BCD0D06820F490709B
:10113000D0602068426922F00102426184F83E30AA
:1011400025632068C26822F01002C2602046FFF7C3
:1011500037FFF8BD05062BD50D0629D594F83D00BF
:101160002128F6D1A068B0F5805F01D12069B0B127
:10117000206A411C2162216800784860E08C401E92
:101180000004000CE084E4D12068C16821F08001F3
:10119000C1602068C16841F04001C160F8BD206AAB
:1011A0000088C0F308005060206A801C2062E5E7D8
:1011B0004006F3D54806F1D5D168204621F040011C
:1011C000D16084F83D3000F03CF8F8BD19130008F8
:1011D00000B585B000210091019102910391006852
:1011E0001449884223D11448816941F480418161C6
:1011F000816901F480410491816941F004018161B8
:101200008069694600F0040004904FF4007000907B
:1012100012200190032003900848FFF77DFA002276
:1012200011462520FFF70AFC2520FFF7F9FB05B042
:1012300000BD0000003801400010024000080140DD
:1012400070477047FEE70000094808B5816941F022
:1012500020018161816901F020010091816941F0E3
:1012600004018161806900F00400009008BD000065
:10127000001002400C4810B50A4901604FF4E131FA
:101280004160002181600C22C160C0E904128161CB
:10129000C161FFF737FB002803D0BDE81040FFF71E
:1012A000B8B910BD003801402C000020FEE7FEE771
:1012B00070477047FFF75CBB30B58FB02821684698
:1012C000FFF78AF814210AA8FFF786F8012108041D
:1012D000CDE900100024029402250491CDE90750C5
:1012E0004FF4E01009906846FFF7C6FC08B172B6EB
:1012F000FEE70F20CDE90A054FF48060CDE90C40F0
:1013000002210AA80E94FFF7CBFB002801D072B689
:10131000FEE70FB030BD704710B5406A0021C185AF
:10132000C184FFF74EFE10BD0168CA6822F49072B6
:10133000CA6001684A6922F001024A61016B012911
:1013400004D10168CA6822F01002CA60202180F826
:101350003E1000210163704708B590F83E10222925
:1013600001D0022008BD82684FF480539A4201D117
:10137000016921B1816A9A421BD04AB10AE0026830
:10138000816A5268C2F308020A80816A891C08E0F7
:10139000026972B10268526802F07F020A70816AC3
:1013A000491C8162C18D491E0904090CC18503D005
:1013B00019E002685268F1E70168CA6822F0200269
:1013C000CA600168CA6822F48072CA6001684A690A
:1013D00022F001024A61202180F83E10016B0129B0
:1013E00003D0FFF72DFF002008BD00210163016835
:1013F000CA6822F01002CA6001680A68D20602D5E3
:101400000A6849680091818DFFF7DAFDEBE700007B
:1014100070B5044600680169E26821F44051114347
:1014200001612169A0680843616908432168CA68AD
:1014300041F20C639A430243CA6020684169A26981
:1014400021F44071114341611E492068884202D154
:10145000FFF7CCFB01E0FFF7B9FB00EBC00101EBAC
:101460000012606864218000B2FBF0F3B3FBF1F37B
:101470006FF018067343B2FBF0F5B2FBF0F605EB24
:101480008305322303EB0515B5FBF1F5B6FBF1F649
:1014900005F0F00505EB0615B2FBF0F6B2FBF0F037
:1014A000B0FBF1F06FF01802504306EB800003EB45
:1014B0000010B0FBF1F0216800F00F0028448860B4
:1014C00070BD00000038014010B500F0EDF9BDE836
:1014D00010400148FFF776BD2C000020FEE7090709
:1014E000090E002804DB00F1E02080F800147047AA
:1014F00000F00F0000F1E02080F8141D7047303834
:101500000A2801D2012070470020704730B50246FA
:101510000020FF240346D50701D00C7000E00B70BB
:10152000401C5208C0B2491C0828F4D3084630BDFC
:101530002DE9F04387B000F014FADFF8CC800027E3
:10154000324DF0284CD0324800F01CFA10F0FF0069
:10155000687006D0DFF8B8903846A9F12409AF606A
:101560003BE04046C5E9010700BFA968491CA960E6
:101570008142F9D3F6E7264901EBC004204600F08A
:101580004BF9E1790646B14201D122A000E023A047
:10159000E860A868C9F80000E0780DF1080EE3796A
:1015A0006278A1788EE80F0021796079CDE9000199
:1015B000A37922781CA109F10400FEF709FEE07965
:1015C000B04207D0A968C9F8001021A109F10400B0
:1015D000FEF7FEFDA868401CA86069788842CAD35F
:1015E000C5E90187404600BFA968491CA96081423E
:1015F000F9D308A1E868FEF717FF002801D04FF0E3
:10160000FF3007B0BDE8F08340420F000400002027
:10161000A0000020435243204F4B00004352432080
:101620004552524F52210000534E3A202530325835
:101630002F25303258253032582530325825303257
:101640005825303258253032582F25303258000076
:101650000A2063616E27742072656164206361757E
:10166000736520434E43206572726F720000000064
:101670002DE9F843184C0020184EA51CDFF86080B7
:1016800004F11007A06022E016F83010E1B1102933
:1016900001D0282918D106EBC00101220F4800F023
:1016A000ACF90090BDF80000608095F900106878F2
:1016B00001EB810100EB410000F0B8FA414600F077
:1016C000F3F9A16847F82100A068401CA060617888
:1016D0008842D9D3BDE8F88304000020A000002090
:1016E000000020412DE9F05F0025894607464FF0B4
:1016F000FF3B2E4600F035F9F02857D0F02000F0DF
:101700006FF900BF4FEAD50809EB080AFF2000F087
:1017100051F900F08DF800F01EF90446FF2000F0AA
:1017200049F900F085F800F016F9844201D1012C46
:1017300003D0844205D0ACB936E04FF0FF30BDE8AD
:10174000F09FB868A84202D14FF001040AE02ADBFA
:1017500007EB080005F00701007B20FA01F010F00C
:10176000010420D09AF8000005F007020121914001
:1017700008438AF80000BCB15FF0FF0000F01AF9DE
:101780006D1CEDB2402DBDD3C7F808B019F80600A6
:10179000B919761CF6B20873072EF7D3B86800287B
:1017A00004DD0120CBE7AB460020E7E70020C6E7D9
:1017B000FFF7E6F8FFF780FDFFF746FDFFF75AFD5C
:1017C000FFF7B6FE054C064E4FF4FA65FFF750FFE3
:1017D000206830602846FEF78DFFF7E714000020F0
:1017E0000000002070B5064600221046B45C0023BD
:1017F00080EA040515F0010F4FEA50004FEA540447
:1018000001D080F08C005B1CDBB2082BF0D3521CA3
:10181000D2B28A42EAD370BD0721FFF7E3BF10B509
:10182000084600F032F8BDE81040442000F0D8B877
:1018300010B500210120074B4FF47A7288401C78C4
:10184000204202D0521E92B2F9D2034830F8110061
:1018500010BD0000040000207000002010B5002220
:101860004FEA020300EBC20400216354491C08291B
:10187000FBDB521C022AF5DB00214218491C1373C2
:101880000829FADB4021816010BD70B505460024AF
:1018900000F067F8552000F0A3F8285D00F0A0F8EC
:1018A000641C082CF9DB70BD0C4800210068800620
:1018B00013D50A480C38026892060ED502689206C3
:1018C000FCD54068064AC0F3080022F8110005481C
:1018D00001228A4001789143017070470C38014021
:1018E00070000020040000202DE9F0470846097828
:1018F00000241546102904D0282902D01046BDE83E
:10190000F0874827FFF7C1FFBE2000F069F8A7F174
:101910000806F01706EB50704FEAE0084FF0010997
:10192000A8EBD400C6B2FF2000F044F8FFF780FF18
:1019300000F011F80128A95D04F0070209FA02F08D
:1019400007D08143641CA4B2A955BC42E8D3284601
:10195000D5E70143F6E7FF2801D0002070470120BA
:10196000704710B54FF4165000F082F8F02000F0E8
:1019700021F8FFF75DFF04464FF4E13000F078F8FE
:10198000204610BD70B505460024FFF767FF00BF75
:1019900005EBC4012846FFF7A5FE002802DA4FF048
:1019A000FF3070BD04F1010401D0022CF0DB2046B1
:1019B00070BD000007490A7842F001020A7006492A
:1019C000C0F308004860054800680168C94349063B
:1019D000FBD4704704000020003801402C00002098
:1019E0001CB56946FFF792FD00236C46E05CFFF7EB
:1019F000E1FF5B1C082BF9DB1CBD7FB500238DF8D4
:101A0000003006468DF80130087814460D4610283F
:101A100015D0282827D101AA3046FFF765FF9DF889
:101A20000B0001019DF80C0041EA101100F00F00BD
:101A300000EB80008DF80010C0F3DB000CE001AA81
:101A40003046FFF751FF9DF80C00410800F00100FF
:101A50008DF8001000EB80008DF801001CB12946C4
:101A60003046FFF7DCFEBDF8000004B070BD00009A
:101A700010B50C4C0A49C4E900100020A0600C21EC
:101A8000E060C4E90401A061E0612046FEF73AFF8E
:101A900000B100BF2068C16841F02001C16010BDE5
:101AA000003801402C0000204FF47F0C1CEAD012BB
:101AB0001EBF1CEAD11392EA0C0F93EA0C0F00F040
:101AC000858090EA010F48BF42F4807240F4000C18
:101AD00041F400002CF07F4120F07F4000B58142AE
:101AE000A2EB03020FF2081CACEB504EC0F1000059
:101AF0009EF800E04FEA4E0E00FB0EFC38BF490096
:101B00004FEA2C1C02F5FA020CFB0EF34FEACE1E34
:101B10004FEA112C4FEAC1210EEB635E42EB2242E9
:101B20000EFB0CFC4FEA1C5300FB03114FEA112C77
:101B30004FEA01310EFB0CFC4FEADC4C00FB0C11B0
:101B4000C14228BF09184CEB03335DF804EB10EBDE
:101B5000410143EBC250B2F57C0F38BF704729D525
:101B600012F0F00F1CBF00F1C04000F000407047C1
:101B7000008182838485868788898B8C8D8E8F9166
:101B80009293959697999A9C9D9FA0A2A3A5A7A88A
:101B9000AAACAEB0B2B3B5B7B9BCBEC0C2C5C7C9B6
:101BA000CCCED1D4D7D9DCDFE2E6E9ECF0F3F7FA1A
:101BB000FE0000004FEA400C0CF1807CBCF17E4F2F
:101BC00028BF7047B0F1C04000F08EB890EA010F16
:101BD0000CEAD11348BF42F48072624538BF6345B6
:101BE00007D213F47F0F16D080EA010000F0004006
:101BF000704710B500F032F8097EFC3E00F005B8E1
:101C000080EA010000F00040704780EA010000F027
:101C1000004000F069B812F47F0F04BF024870471B
:101C200080EA010000F060B80000C07F10F00041C1
:101C300048BF4042B0FA80F310FA03F2C3F19D03AB
:101C40000BD051EAC35101EB1220530638BF704745
:101C500000F1010008BF20F0010070470EF1020EF4
:101C60002EF0030E5EF8044B244204D44FEA4102E6
:101C7000B2F17F4F11D84FEA4003B3F17F4F0CD838
:101C80000ED14FEAD07CB2F17F4F0CEB4C0C0CF133
:101C9000020C08BF4CEBD17C04E04FF0080C01E0D3
:101CA0004FEAD17C0CEB4C0324FA03F404F0070454
:101CB000B4F1040C06D20EEB840CBDE810404CF0DD
:101CC000010C6047DFE80CF0070802024FF000400B
:101CD000A0F5800010BD0846420018BFD2F1807206
:101CE00088BF00F0004010BDFF2141EAD050C00580
:101CF0007047000000000000000001020304060716
:101D00000809000000000102030430313233343589
:101D10003637383941424344454640305800303127
:101D20003233343536373839616263646566403042
:101D3000780004000008000000000000000200011C
:101D400000001000641D0008000000202C000000AE
:101D500028010008901D00082C000020EC0600005F
:101D60004401000800000000000000002C010000F9
:101D70000000000000000000000000000000000063
:101D80000100000010000000000000000024F4002A
:04000005080000ED02
:00000001FF
