:020000040800F2
:1000000040090020A5010008311100083511000841
:10001000391100083D1100084111000800000000DE
:100020000000000000000000000000004511000872
:1000300049110008000000004D110008511100088E
:10004000BF010008BF010008BF010008BF01000890
:10005000BF010008BF010008BF010008BF01000880
:10006000BF010008BF010008BF010008BF01000870
:10007000BF010008BF010008BF010008BF01000860
:10008000BF010008BF010008BF010008BF01000850
:10009000BF010008BF010008BF010008BF01000840
:1000A000BF010008BF010008BF010008BF01000830
:1000B000BF010008BF010008BF010008BF01000820
:1000C000BF010008BF010008BF010008BF01000810
:1000D000BF01000855110008BF010008BF0100085A
:1000E000BF010008BF010008BF01000800F002F8CE
:1000F00000F048F80AA090E8000C82448344AAF17A
:100100000107DA4501D100F03DF8AFF2090EBAE877
:100110000F0013F0010F18BFFB1A43F0010318473B
:1001200050CC000070CC0000103A24BF78C878C1D1
:10013000FAD8520724BF30C830C144BF04680C60ED
:10014000704700000023002400250026103A28BF35
:1001500078C1FBD8520728BF30C148BF0B60704739
:100160001FB50BF049F80400002000210BF0EAFF56
:10017000401C6060002000210BF0CEFFE0601FBD3E
:1001800010B510BD0AF044FD1146FFF7E9FF00F07D
:1001900029F80AF0E7FF03B4FFF7F2FF03BC0BF006
:1001A000DFFA00000948804709480047FEE7FEE7FC
:1001B000FEE7FEE7FEE7FEE7FEE7FEE7FEE7FEE717
:1001C00004480549054A064B7047000059AA000833
:1001D000ED000008400300204009002040050020F9
:1001E0004005002094B006F0CBF94FF48030002495
:1001F000012501906846CDE90844CDE90644CDE9E2
:100200000444CDE902440E94CDE90C44CDE90A44FE
:10021000009506F037FB28B1EFF3108072B600BFEF
:10022000FEE700BF0F20CDE90A050AA80021CDE9AD
:100230000C440E9406F000FD20B1EFF3108072B66E
:10024000FEE700BF41F21800C4F20200016840F668
:10025000004441F0200101600168C4F2010401F092
:100260002001009100990168002241F00401016021
:100270000168042601F0040100910099016800253D
:1002800041F0080101600068042100F008000090BE
:100290000098204607F0A6F8012001900220CDE941
:1002A000020069462046009606F0A8FE40F21410AF
:1002B000C2F200004FF0804142F210730D95CDE97B
:1002C0000B55CDE912550695CDE90455CDE90255FA
:1002D000CDE90055072280E82600C0E90335856195
:1002E00001F090F820B1EFF3108072B6FEE700BF86
:1002F0004FF480500A9040F21410C2F200000AA994
:1003000004F0DEFC20B1EFF3108072B6FEE700BF10
:1003100040F21410C2F2000001F05EFF20B1EFF3D2
:10032000108072B6FEE700BF40F214100025C2F242
:10033000000012A9CDE9125506F0A0F820B1EFF3A4
:10034000108072B6FEE700BF6020CDE9000540F2E4
:100350001410C2F20000694600220295049503F0D1
:10036000BDFF28B1EFF3108072B600BFFEE700BFFB
:1003700040F21410C2F2000000F06EFF40F2EC10E8
:1003800004F53051C2F2000000250C234FF4165240
:1003900080E82600C0E90355C0E90535C56107F0CE
:1003A00013FE28B1EFF3108072B600BFFEE700BF66
:1003B00040F2CC0004F50051C2F200004FF6FF738A
:1003C000CDE912551095CDE90E55CDE90C55CDE985
:1003D0000A55CDE90655CDE90455CDE90255CDE9DB
:1003E0000055072280E82600C0E90335C0E905551D
:1003F00001F0F2FE20B1EFF3108072B6FEE700BF0D
:1004000040F2CC00C2F20000082102F01BFF28B12C
:10041000EFF3108072B600BFFEE700BF40F2CC00E1
:10042000C2F2000012A906F029F818B1EFF310800B
:1004300072B6FEE760200A9040F2CC000025C2F2BE
:1004400000000AA90022CDE90B55CDE90D55CDE9F3
:100450000F5503F043FF18B1EFF3108072B6FEE7BB
:100460004FF40050059040F2CC00C2F20000694603
:100470000495CDE90255CDE90055079506F03CF805
:1004800020B1EFF3108072B6FEE700BF40F2CC005F
:10049000C2F2000000F0E0FE40F25C100021A4F582
:1004A0008432C2F2000007234FF6FF760391CDE9B4
:1004B0000111CDE90A11C0E90023C0E9021601616A
:1004C000816100F09FFF18B1EFF3108072B6FEE774
:1004D0004FF48050009040F25C10C2F20000694678
:1004E00004F0EEFB20B1EFF3108072B6FEE700BF20
:1004F00040F25C100025C2F200000AA9CDE90A55BD
:1005000005F0BCFF20B1EFF3108072B6FEE700BF2C
:1005100040F2A410A4F58231C2F200004FF6FF733E
:100520000395CDE90155CDE90A55072280E826005B
:10053000C0E90335856100F065FF18B1EFF3108065
:1005400072B6FEE74FF48050009040F2A410C2F261
:100550000000694604F0B4FB20B1EFF3108072B6DE
:10056000FEE700BF0020CDE90A0040F2A410C2F26D
:1005700000000AA905F082FF20B1EFF3108072B6E7
:10058000FEE700BF00F04AF800F076F8FCE700BF95
:10059000B0B590B04FF4803000240125079006A834
:1005A000CDE90E44CDE90C44CDE90A44CDE9084437
:1005B0000594CDE90344CDE90144069506F062F9BE
:1005C00020B1EFF3108072B6FEE700BF0F20CDE937
:1005D000010501A80021CDE90344059406F02CFB98
:1005E00020B1EFF3108072B6FEE700BF10B0B0BDCF
:1005F000EFF3108072B600BFFEE700BF40F2EC10D0
:10060000C2F20000704700BF006843F60001C4F268
:100610000101884208BF00F04BB9704780B5FFF771
:10062000EDFF40F27003C2F200034FF0000C40F205
:1006300034215862A3F818C083F80EC0C2F200013A
:10064000012283F807C0BDE8804008F0C5B800BFAC
:1006500040F27003C2F20003586A40F234214FF0B6
:10066000000CC2F200010122A3F818C083F80EC0EA
:1006700083F807C008F0B0B810B584B040F2700439
:10068000C2F20004E07CA17B00F001000843207569
:100690004AD040F60A50029044F25F50C5F2522010
:1006A00044F653710190C4F24D51606A009169465D
:1006B0000B22642307F086FE0021E1742183A173DD
:1006C000606AE17140F23421C2F20001012208F0B7
:1006D00083F8607D28B340F62120C0F20D0003901E
:1006E00044F24C50C4F25450029044F64370C5F2A8
:1006F0004D0044F643510190C5F64471606A009183
:1007000069461022642307F05DFE00212183A17356
:10071000606AE17140F23421C2F20001012208F066
:100720005BF804B010BD00BFE0790028D1D040F6DE
:100730000A50039045F24540C2F24510029044F63B
:100740004F50C4F6504045F652010190C4F25F315B
:10075000606A009169460F22642307F033FE40F27D
:100760003420C2F20000417906305029A175A06200
:1007700002D1002100F0F0FAE07B217C627CA37CB6
:100780000843104350EA0301B1FA81F04FEA5010D8
:1007900018BF0121E174607500289CD1C1E700BF3A
:1007A00080B584B040F60A50039044F25F50C5F221
:1007B0005220029040F27000C2F2000044F65371E1
:1007C000406AC4F24D51019101A90B22642307F044
:1007D000F9FD04B080BD00BF40F27000C2F200001D
:1007E00000218173C174704780B584B040F60A500F
:1007F000039045F24540C2F24510029044F64F5036
:10080000C4F65040019040F27000C2F2000045F67C
:100810005201406AC4F25F31009169460F2264239D
:1008200007F0D0FD04B080BD10B540F23420C2F214
:100830000000417940F27004C2F2000406305029F1
:10084000A175A06202D1002100F086FAE07B217C34
:10085000627CA37C084310431843B0FA80F14FEA4E
:10086000511118BF0120E074617510BD80B584B0CE
:1008700040F62120C0F20D00039044F24C50C4F227
:100880005450029044F64370C5F24D00019040F27E
:100890007000C2F2000044F64351406AC5F644714C
:1008A000009169461022642307F08CFD04B080BDDE
:1008B0002DE9F04F84B040F2700EC2F2000EBEF887
:1008C000181000234A1C91B2AEF81820012988BFE5
:1008D00001238EF8033002294FF000034FF0000788
:1008E00088BF01238EF80430032988BF0127002622
:1008F0008EF80570042988BF01269EF800708EF8D6
:1009000006607E1A0336B6FA86F6760903EA060012
:100910008EF80700032940F2342CC2F2000C24BFE9
:100920009CF802708EF8007002294FF0000688BF14
:100930000126B1F5807F4FF00009A7F1040788BFB9
:100940004FF00109F92F4FF000074FF000088EF823
:100950000D9088BF012706EA0702022903928EF84C
:1009600009200CD39CF800209CF8015082F0AC02C6
:1009700085F0530552EA050818BF4FF00108042915
:100980004FF000064FF0000788BF0126032988BFFB
:1009900001279EF801209CF803309CF804409A1A25
:1009A0008EF8088018BF012207EA020A621E4FF083
:1009B00000058EF80AA018BF012206EA020B0028E3
:1009C00002908EF80BB000F0C6809EF8020021F075
:1009D0000104019001F00100ACF10207664200251C
:1009E0003124009017F8022F6A4055B284EA42037E
:1009F000B5F1FF3FC8BF53005AB284EA4305B2F1D4
:100A0000FF3FC8BF5D006AB284EA4503B2F1FF3F11
:100A1000C8BF6B005AB284EA4305B2F1FF3FC8BFBA
:100A20005D006AB284EA4503B2F1FF3FC8BF6B00C4
:100A30005AB284EA4305B2F1FF3FC8BF5D006AB213
:100A400084EA4503B2F1FF3FC8BF6B005AB2B2F16E
:100A5000FF3F7A7884EA4305C8BF5D006A4053B21D
:100A600084EA4205B3F1FF3FC8BF55006AB284EA89
:100A70004503B2F1FF3FC8BF6B005AB284EA430599
:100A8000B2F1FF3FC8BF5D006AB284EA4503B2F12C
:100A9000FF3FC8BF6B005AB284EA4305B2F1FF3F83
:100AA000C8BF5D006AB284EA4503B2F1FF3FC8BF28
:100AB0006B005AB284EA4300B2F1FF3FC8BF58004E
:100AC00042B284EA4005B2F1FF3FC8BF450002369A
:100AD00088D10098D0B3B8783124684042B284EA13
:100AE0004003B2F1FF3FC8BF430058B284EA43025B
:100AF000B0F1FF3FC8BF5A0050B284EA4203B0F1E0
:100B0000FF3FC8BF530058B284EA4302B0F1FF3F31
:100B1000C8BF5A0050B284EA4203B0F1FF3FC8BFD9
:100B2000530058B284EA4302B0F1FF3FC8BF5A00F5
:100B300050B284EA4203B0F1FF3FC8BF530058B23D
:100B400084EA4305B0F1FF3FC8BF5D00019AE8B2F7
:100B5000151A18BF012503988EF80C5040EA0800BA
:100B600040EA0A0050EA0B0008BF002D04D0012023
:100B70008EF80E000AE000BF0020B1F5807F88BF2C
:100B8000012002998EF80E90084303D004B0BDE80E
:100B9000F08F00BFDEF8240040F23421C2F20001E1
:100BA000012204B0BDE8F04F07F016BE70B559B190
:100BB000012901F0010C0BD100220021BCF1000F32
:100BC00000F0C8808BE000BF0021C8B270BD00BF3C
:100BD00021F00101C1F1000E00216FF0010331226B
:100BE000C418A578E47869404DB282EA4106B5F1AF
:100BF000FF3FC8BF4E0071B282EA4605B1F1FF3F28
:100C0000C8BF750069B282EA4506B1F1FF3FC8BFAF
:100C10006E0071B282EA4605B1F1FF3FC8BF7500B0
:100C200069B282EA4506B1F1FF3FC8BF6E0071B2FA
:100C300082EA4605B1F1FF3FC8BF750069B282EA9A
:100C40004506B1F1FF3FC8BF6E0071B282EA4605AA
:100C5000B1F1FF3FC8BF750084EA05014CB282EADA
:100C60004105B4F1FF3FC8BF4D0069B282EA4504B7
:100C7000B1F1FF3FC8BF6C0061B282EA4405B1F137
:100C8000FF3FC8BF650069B282EA4504B1F1FF3F8A
:100C9000C8BF6C0061B282EA4405B1F1FF3FC8BF32
:100CA000650069B282EA4504B1F1FF3FC8BF6C003C
:100CB00061B282EA4405B1F1FF3FC8BF65006CB282
:100CC000023382EA4501B4F1FF3F0EEB0304C8BFD3
:100CD0006900023484D19A1CBCF1000F3AD0805CC8
:100CE000414031204AB280EA4103B2F1FF3FC8BF20
:100CF0004B0059B280EA4302B1F1FF3FC8BF5A002E
:100D000051B280EA4203B1F1FF3FC8BF530059B26C
:100D100080EA4302B1F1FF3FC8BF5A0051B280EAF6
:100D20004203B1F1FF3FC8BF530059B280EA43020A
:100D3000B1F1FF3FC8BF5A0051B280EA4203B1F19E
:100D4000FF3FC8BF53005AB280EA4301B2F1FF3FF0
:100D5000C8BF5900C8B270BDF0B581B040F270078D
:100D6000C2F20007FD6A5821044609F0AFFE28B11F
:100D700001300BF055F90BF0FBF905463E6B2046B0
:100D800059217D6409F0A2FE28B101300BF048F929
:100D90000BF0EEF9064620464921BE6409F096FEA6
:100DA00030B101300BF03CF90BF0E2F901E000BF8B
:100DB0000020F86420464A2109F088FE30B1013055
:100DC0000BF02EF90BF0D4F901E000BF0020FD6B11
:100DD00038652046462109F079FE28B101300BF034
:100DE0001FF90BF0C5F90546204647217D6509F03E
:100DF0006DFEA8B101300BF013F90BF0B9F90BF04F
:100E000081FD0128B86513DD811E02291BD35A28F4
:100E100016D05B2807D1002087F8400001B0F0BD54
:100E20004FF0FF30B8650120387401B0F0BD00BF4D
:100E300060B10128F7D101B0BDE8F04000F086B8FC
:100E4000012087F8400001B0F0BD00BF01B0BDE84F
:100E5000F04000F011B800BF10B5144609F036FE9E
:100E600028B101300BF0DCF80BF082F90446204683
:100E700010BD00BF704700BF2DE9F04740F2700978
:100E8000C2F20009D9F84440D9E90BA899F84050BA
:100E9000204651460BF06AFC064620464146002D8E
:100EA00018BF26460BF062FC074630460021002D95
:100EB00018BF27460BF0DFFC00210446C4F2A53121
:100EC00030460BF0C3FC0443384600210BF0D3FC42
:100ED00000210443C4F2643138460BF0B7FC2043D0
:100EE00018BF012089F8110018BFBDE8F0875046EF
:100EF0003146C9E90D670BF0D5FD20F000444046AE
:100F000039460BF0CFFD20F0004520460BF002FCE7
:100F100041F27B4447F6E126C4F2AE74C3F6847610
:100F2000224633460BF06AF90BF0FEFAC9F81C00B2
:100F300028460BF0EFFB224633460BF05FF90BF02F
:100F4000F3FAC9F82000BDE8F08700BF2DE9F047AB
:100F500040F27009C2F20009D9F84440D9E90BA85F
:100F600099F84050204651460BF000FC06462046BA
:100F70004146002D18BF26460BF0F8FB07463046C9
:100F80000021002D18BF27460BF075FC00210446F8
:100F9000C4F2A53130460BF059FC04433846002119
:100FA0000BF069FC00210443C4F2643138460BF0B5
:100FB0004DFC204318BF012089F8110018BFBDE87F
:100FC000F08750463146C9E90D670BF06BFD20F004
:100FD0000044404639460BF065FD20F000452046B0
:100FE0000BF098FB41F27B4447F6E126C4F2AE7465
:100FF000C3F68476224633460BF000F90BF094FAE0
:10100000C9F81C0028460BF085FB224633460BF03E
:10101000F5F80BF089FAC9F82000BDE8F08700BFA9
:10102000704700BF704700BF40F27000C2F200007E
:10103000012180F84010704740F27000C2F20000B9
:10104000002180F840107047B0B540F27001C2F244
:10105000000191F84050C96A0446084621460BF049
:1010600085FB002D18BF2046B0BD00BFB0B540F2D3
:101070007001C2F2000191F84050096B0446084625
:1010800021460BF073FB002D18BF2046B0BD00BFFA
:10109000F0B581B00C46002105460BF0ECFB0021B9
:1010A0000646C4F2A53128460BF0D0FB0643204685
:1010B00000210BF0E0FB00210643C4F2643120461E
:1010C0000BF0C4FB40F270073043C2F2000718BFB8
:1010D000012078742AD1D7E90B062946C7E90D54B7
:1010E0000BF0E0FC20F00045304621460BF0DAFC26
:1010F00020F0004428460BF00DFB41F27B4547F6FB
:10110000E126C4F2AE75C3F684762A4633460BF068
:1011100075F80BF009FAF86120460BF0FBFA2A4645
:1011200033460BF06BF80BF0FFF9386201B0F0BDFD
:10113000FEE700BFFEE700BFFEE700BFFEE700BF1F
:10114000FEE700BF704700BF704700BF704700BF99
:1011500005F062BA40F2EC10C2F2000008F086BF5F
:1011600082B041F21800C4F202000168042241F08A
:1011700001010160016801F00101019101994168DB
:1011800041F080514160406800F08050009000982C
:101190000420C4F20100016862F31A61016002B028
:1011A000704700BF81B0006842F60041C4F20101FF
:1011B000884201D001B0704741F21800C4F2020029
:1011C000016841F400610160006800F40060009073
:1011D000009801B0704700BF83B0006840F600017E
:1011E000C4F20001884217D040F20041C4F200016D
:1011F000884221D0B0F1804F1BD141F21C00C4F2D3
:101200000200016841F001010160006800F0010086
:101210000290029803B0704741F21C00C4F2020031
:10122000016841F004010160006800F004000090D2
:10123000009803B0704700BF41F21C00C4F20200E6
:10124000016841F002010160006800F002000190B5
:10125000019803B0704700BF80B586B000680021D8
:10126000B0F1804FCDE904110391029116D042F6FE
:101270000041C4F20101884229D141F21800C4F2B0
:101280000200016841F004010160006800F0040000
:10129000019001984FF480700EE000BF41F21800F9
:1012A000C4F20200016841F004010160006800F02E
:1012B0000400019001980120029002200390059003
:1012C00040F60000C4F2010002A905F097FE06B046
:1012D00080BD00BF006842F60041C4F201018842AF
:1012E00018BF704741F21800C4F20200016821F4EF
:1012F00000610160704700BF0068B0F1804F0FD0FF
:1013000040F60001C4F2000188420DD040F20041D5
:10131000C4F20001884218BF70476FF0020005E078
:101320006FF0010002E000BF6FF0040041F21C0109
:10133000C4F202010A6810400860704770B586B0B8
:1013400040F60004C4F20104006804F54051002690
:101350008842049602D006B070BD00BF41F218006A
:10136000C4F20200016802AD41F4804101600168ED
:1013700001F4804101910199016841F0040101608B
:101380000068294600F00400019001984FF40070B5
:1013900002900220039003200590204605F02EFEC7
:1013A0004FF48060CDE9020620462946049605F0F8
:1013B00025FE25200021002206F000FD252006F054
:1013C00029FD06B070BD00BF80B5014640F60000A3
:1013D000C4F20100096800F54052914218BF80BD77
:1013E00041F21801C4F202010A6822F480420A6044
:1013F0004FF4C06105F00CFF2520BDE8804006F0E9
:1014000019BD0000002804BF0120704710B5044634
:1014100090F83D0028B9002084F83C002046FFF7F2
:10142000DBFE022084F83D00206840F2FF73026872
:10143000C4F2000342F6004C9842C4F2010C15DCE1
:10144000B0F1804F1AD040F20041C4F2000188424E
:1014500014D0984218DCB0F1804F1DD040F200410A
:10146000C4F20001884217D01AE000BF604505D0E1
:1014700040F60001C4F200018842EAD1A16822F0DE
:1014800070020A439842E6DD604505D040F600014F
:10149000C4F20001884203D1216922F440720A4358
:1014A000A36922F08001D4F804E0E26819436045A2
:1014B0000160C262C0F828E002D16169CCF8301046
:1014C000012141610269D20703D0026922F00102C1
:1014D0000261002084F8461084F83E1084F83F1022
:1014E00084F8401084F8411084F8421084F84310C6
:1014F00084F8441084F8451084F83D1010BD00BFF6
:10150000704700BF10B540F2FF7E0368C4F2000EC2
:1015100042F6004C7045C4F2010C15DCB0F1804F6E
:101520001AD040F20042C4F20002904214D070453A
:1015300018DCB0F1804F1DD040F20042C4F200022E
:10154000904217D01AE000BF604505D040F6000277
:10155000C4F200029042EAD14A6823F070031343B8
:101560007045E6DD604505D040F60002C4F2000299
:10157000904203D1CA6823F44073134323F08002DE
:101580004B69D1F800E08C681A4360450260C46280
:10159000C0F828E002D10969CCF83010012141617E
:1015A0000169C90708BF10BD016921F0010101618E
:1015B00010BD00BF10B50446022084F83D0020682D
:1015C00041F21112016A114208D1016A40F244420B
:1015D000114203D1016821F0010101602046FFF7AB
:1015E0008BFE0021002084F8461084F83E1084F819
:1015F0003F1084F8401084F8411084F8421084F8B9
:10160000431084F8441084F8451084F83D1084F8A1
:101610003C1010BD704700BF90F83D1001291CBF61
:1016200001207047022180F83D10006840F2FF71F0
:10163000C4F20001884209DCB0F1804F12D040F2C0
:101640000041C4F2000188420CD012E042F6004191
:10165000C4F20101884205D040F60001C4F2000145
:10166000884206D1816801F00701062904BF0020E5
:101670007047016841F0010101600020704700BF20
:101680000146006841F21113026A1A4204D0012295
:10169000002081F83D207047026A40F244431A421C
:1016A000F5D1026822F0010202600122002081F8D7
:1016B0003D20704790F83D1001291CBF0120704764
:1016C000022180F83D10006840F2FF72C168C4F248
:1016D0000002904241F00101C16009DCB0F1804F8D
:1016E00012D040F20041C4F2000188420CD012E056
:1016F00042F60041C4F20101884205D040F60001E3
:10170000C4F20001884206D1816801F00701062970
:1017100004BF00207047016841F001010160002012
:10172000704700BF0146006841F21113C26822F001
:101730000102C260026A1A4204D00122002081F82C
:101740003D207047026A40F244431A42F5D10268D4
:1017500022F0010202600122002081F83D20704742
:1017600010B5044690F83D00022804BF022010BDC9
:1017700094F83D00012824D100294FF0010058D0F1
:10178000002A134608BF10BD022084F83D00206ADD
:1017900041F63502C0F600028262206A41F6490233
:1017A000C0F60002C262206A41F65102C0F6000291
:1017B000D4F800C00263206A0CF12C0205F0EEFEA2
:1017C00010B1012010BD00BF206840F2FF72C16857
:1017D000C4F2000241F480719042C1600ADCB0F1B1
:1017E000804F13D040F20041C4F2000188420DD076
:1017F0001AE000BF42F60041C4F20101884205D060
:1018000040F60001C4F2000188420DD1816801F068
:101810000701062904BF002010BD016841F0010145
:101820000160002010BD00BF016841F001010160AE
:10183000002010BD406A016A8969002904BF0121A6
:1018400080F83D1002F04ABB406A03F0EFBB00BFD6
:1018500010B5446A616A81420CD0A16A81420FD0FE
:10186000E16A814212D0216B814215D0012084F8B7
:101870003D0016E00120207784F83E0011E000BF13
:1018800002202077012084F83F000AE0042020771E
:10189000012084F8400004E008202077012084F82B
:1018A0004100204603F0CAFB0020207710BD00BF96
:1018B00010B501680446006ACA6822F48072CA60E2
:1018C00005F0DEFE206841F21112016A114205D0D6
:1018D0000121002084F83D1010BD00BF016A40F2D4
:1018E00044421142F4D1016821F00101016001215B
:1018F000002084F83D1010BD002804BF012070476F
:1019000010B5044690F83D0028B9002084F83C004A
:10191000204600F06FF8022084F83D00206840F275
:10192000FF730268C4F2000342F6004C9842C4F20E
:10193000010C15DCB0F1804F1AD040F20041C4F226
:101940000001884214D0984218DCB0F1804F1DD0BD
:1019500040F20041C4F20001884217D01AE000BFF3
:10196000604505D040F60001C4F200018842EAD18A
:10197000A16822F070020A439842E6DD604505D076
:1019800040F60001C4F20001884203D1216922F42B
:1019900040720A43A36922F08001D4F804E0E268AF
:1019A000194360450160C262C0F828E002D1616954
:1019B000CCF83010012141610269D20703D00269DD
:1019C00022F001020261002084F8461084F83E10E3
:1019D00084F83F1084F8401084F8411084F84210D5
:1019E00084F8431084F8441084F8451084F83D10BE
:1019F00010BD00BF704700BF10B50446022084F838
:101A00003D00206841F21112016A114208D1016AB9
:101A100040F24442114203D1016821F0010101600A
:101A2000204600F019F80021002084F8461084F8C0
:101A30003E1084F83F1084F8401084F8411084F878
:101A4000421084F8431084F8441084F8451084F858
:101A50003D1084F83C1010BD704700BF41B108290B
:101A600010D0042914BF00F1410200F13F020BE045
:101A700090F83E20012A1CBF01207047022280F806
:101A80003E2013E000F140021278012A1CBF012021
:101A900070470222082907D0042914BF80F841208A
:101AA00080F83F2002E000BF80F84020006801F08D
:101AB0001F010122036A8A4023EA02010162036ACC
:101AC00042F64441C4F201011A43A1F14403984291
:101AD00002620FD040F2FF71C4F20001884213DCB1
:101AE000B0F1804F1CD040F20041C4F200018842A6
:101AF00016D01CE00A6842F400420A6040F2FF710E
:101B0000C4F200018842EBDD42F60041C4F201015B
:101B1000884205D040F60001C4F20001884206D197
:101B2000816801F00701062904BF002070470168A1
:101B300041F0010101600020704700BF80B501F055
:101B40001F014FF0010CD0F820E00CFA01F32EEA4F
:101B500003030362036A02FA01F11943016280BDC3
:101B600080B5026801F01F0C012303FA0CFE136A12
:101B700042F6444C23EA0E03C4F2010C1362D2F87D
:101B800020E0ACF144039A42C2F820E013D15CF8A3
:101B900024EC41F211131EEA030F0CD1D2F820E01D
:101BA00040F244431EEA030F05D1DCF8003023F471
:101BB0000043CCF80030D2F820C041F211131CEAE7
:101BC000030F06D1D2F820C040F244431CEA030FB1
:101BD00014D0082918D004290AD000294FF0010197
:101BE00014BF80F8411080F83E10002080BD00BF77
:101BF000012180F83F10002080BD00BF136823F052
:101C0000010313600829E6D1012180F8401000206B
:101C100080BD00BF41B1082916D0042914BF00F1CE
:101C2000410200F13F0211E090F83E20012A1CBF62
:101C300001207047022280F83E204FEAB103032BB7
:101C40004FF0010216D81FE000F140021278012A7D
:101C50001CBF01207047022208290DD0042914BF9F
:101C600080F8412080F83F204FEAB103032B4FF06A
:101C7000010209D91046704780F840204FEAB103AD
:101C8000032B4FF00102F5D84CF6405C0068C0F61B
:101C9000000C5CF823C0C36801F01F0143EA0C0389
:101CA000C360036A8A4023EA02010162036A42F6C2
:101CB0004441C4F201011A43A1F144039842026273
:101CC00010D040F2FF71C4F20001884214DCB0F180
:101CD000804F1DD040F20041C4F20001884217D06D
:101CE00024E000BF0A6842F400420A6040F2FF713B
:101CF000C4F200018842EADD42F60041C4F201016B
:101D0000884205D040F60001C4F2000188420DD19E
:101D1000816801F00701062904BF002070470168AF
:101D200041F0010101600020704700BF01680022FE
:101D300041F0010101601046704700BF10B54FEA45
:101D4000B102032A4FF0010E55D84CF6505C0368DF
:101D5000C0F6000C5CF82220DC6842F6444C2240BD
:101D6000DA6001F01F021C6A0EFA02F224EA020293
:101D7000C4F2010C1A621A6AACF14404A3421A625A
:101D800010D15CF8242C41F2111422420AD11A6AB3
:101D900040F24444224205D1DCF8002022F4004203
:101DA000CCF800201A6A41F21114224208D11A6AB2
:101DB00040F24444224203D11A6822F001021A6020
:101DC000082907D004290BD081B9012180F83E10E1
:101DD000002010BD012180F84010002010BD00BF80
:101DE000012180F83F10002010BD00BF01214FF0FD
:101DF000000E80F84110704610BD00BFB0B50C4613
:101E0000054649B1082C13D0042C14BF05F141003C
:101E100005F13F000EE000BF95F83E00022804BF28
:101E20000220B0BD05F13E00007801281AD0C1E0C3
:101E300005F140000078022804BF0220B0BD082C44
:101E40000AD0042C14BF05F1410005F13F000078D1
:101E5000012840F0AF8005E005F14000007801283E
:101E600040F0A880002A4FF0010018BF002B01D1DC
:101E7000B0BD00BF02206CB1082C13D0042C14BFDD
:101E800085F8410085F83F004FEAB400032810D9D7
:101E900090E000BF85F83E004FEAB400032808D95F
:101EA00088E000BF85F840004FEAB400032800F244
:101EB0008180DFE800F00323436300BF686A42F2D9
:101EC0004101C0F600018162686A42F2AD01C0F6CC
:101ED0000001C162686A41F65101D5F800C0C0F640
:101EE00000010163686A0CF1340C1146624605F08A
:101EF00055FB00285ED14FF400715FE0A86A42F202
:101F00004101C0F600018162A86A42F2AD01C0F64B
:101F10000001C162A86A41F65101D5F800C0C0F6BF
:101F200000010163A86A0CF1380C1146624605F005
:101F300035FB00283ED14FF480613FE0E86A42F271
:101F40004101C0F600018162E86A42F2AD01C0F6CB
:101F50000001C162E86A41F65101D5F800C0C0F63F
:101F600000010163E86A0CF13C0C1146624605F081
:101F700015FBF8B94FF4006120E000BF286B42F276
:101F80004101C0F600018162286B42F2AD01C0F64A
:101F90000001C162286B41F65101D5F800C0C0F6BE
:101FA00000010163286B0CF1400C1146624605F0FC
:101FB000F5FA08B10120B0BD4FF480512868C2681D
:101FC0001143C16004F01F010122036A8A4023EA21
:101FD00002010162036A42F64441C4F201011A435C
:101FE000A1F144039842026203D10A6842F400421C
:101FF0000A6040F2FF71C4F20001884206DCB0F1D1
:10200000804F0FD040F2004108E000BF42F600418F
:10201000C4F20101884205D040F60001C4F200017B
:10202000884206D1816801F00701062904BF00201B
:10203000B0BD016841F0010101600020B0BD00BFEA
:1020400010B5446A616A814212D0A16A814217D0F8
:10205000E16A81421CD0216B814220D18069082134
:102060000028217704BF012084F8410017E000BF59
:10207000816901200029207708BF84F83E000EE026
:1020800080690221217750B9012084F83F0006E0E1
:1020900080690421217710B9012084F8400020468E
:1020A00001F01AFF0020207710BD00BF10B5446A70
:1020B000616A81420AD0A16A814209D0E16A814203
:1020C00008D0216B814207D1082004E0012002E002
:1020D000022000E004202077204602F0ABFF002021
:1020E000207710BD70B50D464FEAB10103290DD818
:1020F0000446DFE801F0030D151D00BF204650F82F
:10210000241BCA6822F4007218E000BF012070BDD1
:10211000204650F8281BCA6822F480620EE000BFF7
:10212000204650F82C1BCA6822F4006206E000BF6B
:10213000204650F8301BCA6822F48052CA600068FA
:1021400042F64446C4F2010605F09AFA206805F00A
:102150001F010122036A02FA01F123EA010101626F
:10216000016AA6F14402904201620ED156F8241C85
:1021700041F21112114208D1016A40F24442114267
:1021800003D1316821F400413160016A41F211123A
:10219000114204D1016A40F24442114210D00120A0
:1021A000082D14D0042D07D0002D14BF84F8410051
:1021B00084F83E00002070BD84F83F00002070BD10
:1021C000016821F0010101600120082DEAD184F8A5
:1021D0004000002070BD00BF002804BF01207047F0
:1021E00010B5044690F83D0028B9002084F83C0062
:1021F0002046FEF7D7FF022084F83D00206840F219
:10220000FF730268C4F2000342F6004C9842C4F225
:10221000010C15DCB0F1804F1AD040F20041C4F23D
:102220000001884214D0984218DCB0F1804F1DD0D4
:1022300040F20041C4F20001884217D01AE000BF0A
:10224000604505D040F60001C4F200018842EAD1A1
:10225000A16822F070020A439842E6DD604505D08D
:1022600040F60001C4F20001884203D1216922F442
:1022700040720A43A36922F08001D4F804E0E268C6
:10228000194360450160C262C0F828E002D161696B
:10229000CCF83010012141610269D20703D00269F4
:1022A00022F001020261002084F8461084F83E10FA
:1022B00084F83F1084F8401084F8411084F84210EC
:1022C00084F8431084F8441084F8451084F83D10D5
:1022D00010BD00BF704700BF10B50446022084F84F
:1022E0003D00206841F21112016A114208D1016AD1
:1022F00040F24442114203D1016821F00101016022
:102300002046FEF7E7FF0021002084F8461084F8FD
:102310003E1084F83F1084F8401084F8411084F88F
:10232000421084F8431084F8441084F8451084F86F
:102330003D1084F83C1010BD704700BF41B1082922
:1023400010D0042914BF00F1410200F13F020BE05C
:1023500090F83E20012A1CBF01207047022280F81D
:102360003E2013E000F140021278012A1CBF012038
:1023700070470222082907D0042914BF80F84120A1
:1023800080F83F2002E000BF80F84020006801F0A4
:102390001F010122036A8A4023EA02010162036AE3
:1023A00042F64441C4F201011A43A1F144039842A8
:1023B00002620FD040F2FF71C4F20001884213DCC8
:1023C000B0F1804F1CD040F20041C4F200018842BD
:1023D00016D01CE00A6842F400420A6040F2FF7125
:1023E000C4F200018842EBDD42F60041C4F2010173
:1023F000884205D040F60001C4F20001884206D1AF
:10240000816801F00701062904BF002070470168B8
:1024100041F0010101600020704700BF80B50268F3
:1024200001F01F0C012303FA0CFE136A42F6444C20
:1024300023EA0E03C4F2010C1362D2F820E0ACF1DF
:1024400044039A42C2F820E013D15CF824EC41F234
:1024500011131EEA030F0CD1D2F820E040F24443DE
:102460001EEA030F05D1DCF8003023F40043CCF85A
:102470000030D2F820C041F211131CEA030F06D13C
:10248000D2F820C040F244431CEA030F14D00829BC
:1024900018D004290AD000294FF0010114BF80F898
:1024A000411080F83E10002080BD00BF012180F85F
:1024B0003F10002080BD00BF136823F001031360AC
:1024C0000829E6D1012180F84010002080BD00BF1E
:1024D00041B1082916D0042914BF00F1410200F1CE
:1024E0003F0211E090F83E20012A1CBF01207047F6
:1024F000022280F83E204FEAB103032B4FF0010285
:1025000016D81FE000F140021278012A1CBF0120FA
:102510007047022208290DD0042914BF80F84120F9
:1025200080F83F204FEAB103032B4FF0010209D995
:102530001046704780F840204FEAB103032B4FF05C
:102540000102F5D84CF6405C0068C0F6000C5CF85F
:1025500023C0C36801F01F0143EA0C03C360036A90
:102560008A4023EA02010162036A42F64441C4F24E
:1025700001011A43A1F144039842026210D040F2D3
:10258000FF71C4F20001884214DCB0F1804F1DD00D
:1025900040F20041C4F20001884217D024E000BF9D
:1025A0000A6842F400420A6040F2FF71C4F200017E
:1025B0008842EADD42F60041C4F20101884205D0BA
:1025C00040F60001C4F2000188420DD1816801F09B
:1025D0000701062904BF00207047016841F001018E
:1025E00001600020704700BF0168002241F0010136
:1025F00001601046704700BF10B54FEAB102032AD0
:102600004FF0010E55D84CF6505C0368C0F6000C34
:102610005CF82220DC6842F6444C2240DA6001F08B
:102620001F021C6A0EFA02F224EA0202C4F2010C32
:102630001A621A6AACF14404A3421A6210D15CF81F
:10264000242C41F2111422420AD11A6A40F2444465
:10265000224205D1DCF8002022F40042CCF8002010
:102660001A6A41F21114224208D11A6A40F2444413
:10267000224203D11A6822F001021A60082907D009
:1026800004290BD081B9012180F83E10002010BD33
:10269000012180F84010002010BD00BF012180F80A
:1026A0003F10002010BD00BF01214FF0000E80F848
:1026B0004110704610BD00BFB0B50C46054649B18B
:1026C000082C13D0042C14BF05F1410005F13F0084
:1026D0000EE000BF95F83E00022804BF0220B0BD06
:1026E00005F13E00007801281AD0C1E005F1400054
:1026F0000078022804BF0220B0BD082C0AD0042CA8
:1027000014BF05F1410005F13F000078012840F0B9
:10271000AF8005E005F140000078012840F0A88076
:10272000002A4FF0010018BF002B01D1B0BD00BF3F
:1027300002206CB1082C13D0042C14BF85F8410082
:1027400085F83F004FEAB400032810D990E000BF9D
:1027500085F83E004FEAB400032808D988E000BF9E
:1027600085F840004FEAB400032800F28180DFE8DA
:1027700000F00323436300BF686A42F24101C0F6E0
:1027800000018162686A42F2AD01C0F60001C162D7
:10279000686A41F65101D5F800C0C0F60001016336
:1027A000686A0CF1340C1146624604F0F7FE00280A
:1027B0005ED14FF400715FE0A86A42F24101C0F6B9
:1027C00000018162A86A42F2AD01C0F60001C16257
:1027D000A86A41F65101D5F800C0C0F600010163B6
:1027E000A86A0CF1380C1146624604F0D7FE0028A6
:1027F0003ED14FF480613FE0E86A42F24101C0F609
:1028000000018162E86A42F2AD01C0F60001C162D6
:10281000E86A41F65101D5F800C0C0F60001016335
:10282000E86A0CF13C0C1146624604F0B7FEF8B9B8
:102830004FF4006120E000BF286B42F24101C0F676
:1028400000018162286B42F2AD01C0F60001C16255
:10285000286B41F65101D5F800C0C0F600010163B4
:10286000286B0CF1400C1146624604F097FE08B14B
:102870000120B0BD4FF480512868C2681143C16087
:1028800004F01F010122036A8A4023EA0201016267
:10289000036A42F64441C4F201011A43A1F1440320
:1028A0009842026203D10A6842F400420A6040F290
:1028B000FF71C4F20001884206DCB0F1804F0FD0F6
:1028C00040F2004108E000BF42F60041C4F20101BD
:1028D000884205D040F60001C4F20001884206D1CA
:1028E000816801F00701062904BF0020B0BD01681E
:1028F00041F0010101600020B0BD00BF70B50D4680
:102900004FEAB10103290DD80446DFE801F0030DB9
:10291000151D00BF204650F8241BCA6822F400721F
:1029200018E000BF012070BD204650F8281BCA687F
:1029300022F480620EE000BF204650F82C1BCA68CB
:1029400022F4006206E000BF204650F8301BCA683F
:1029500022F48052CA60006842F64446C4F201067E
:1029600004F08EFE206805F01F010122036A02FABE
:1029700001F123EA01010162016AA6F144029042D9
:1029800001620ED156F8241C41F21112114208D1F5
:10299000016A40F24442114203D1316821F40041FE
:1029A0003160016A41F21112114204D1016A40F210
:1029B0004442114210D00120082D14D0042D07D01C
:1029C000002D14BF84F8410084F83E00002070BD43
:1029D00084F83F00002070BD016821F00101016012
:1029E0000120082DEAD184F84000002070BD00BF0E
:1029F000002804BF0120704710B5044690F83D0040
:102A000028B9002084F83C00204600F06FF802202E
:102A100084F83D00206840F2FF730268C4F20003AE
:102A200042F6004C9842C4F2010C15DCB0F1804F24
:102A30001AD040F20041C4F20001884214D09842FA
:102A400018DCB0F1804F1DD040F20041C4F200010B
:102A5000884217D01AE000BF604505D040F600015B
:102A6000C4F200018842EAD1A16822F070020A4350
:102A70009842E6DD604505D040F60001C4F2000151
:102A8000884203D1216922F440720A43A36922F0EB
:102A90008001D4F804E0E268194360450160C26235
:102AA000C0F828E002D16169CCF830100121416101
:102AB0000269D20703D0026922F0010202610020FC
:102AC00084F8461084F83E1084F83F1084F84010D3
:102AD00084F8411084F8421084F8431084F84410BC
:102AE00084F8451084F83D1010BD00BF704700BF4A
:102AF00010B50446022084F83D00206841F211120E
:102B0000016A114208D1016A40F24442114203D1E4
:102B1000016821F001010160204600F019F8002150
:102B2000002084F8461084F83E1084F83F1084F8A2
:102B3000401084F8411084F8421084F8431084F85F
:102B4000441084F8451084F83D1084F83C1010BD02
:102B5000704700BF61B1082916D0042919BF00F1E0
:102B6000410200F1450300F13F0200F143030FE091
:102B700090F83E2090F84230012A4FF0010208BF41
:102B8000012B17D01046704700F1400200F14403BA
:102B900012781B78012A4FF0010208BF012BF1D1F6
:102BA000022208290CD0042910D180F83F2080F897
:102BB00043200FE0022280F83E2080F8422009E006
:102BC00080F8402080F8442004E000BF80F84120D5
:102BD00080F84520006801F01F010122036A02FA13
:102BE00001F123EA01020262026A114340F2FF721C
:102BF000C4F20002904201620ADCB0F1804F13D0AF
:102C000040F20041C4F2000188420DD01AE000BF3A
:102C100042F60041C4F20101884205D040F60001AD
:102C2000C4F2000188420DD1816801F00701062934
:102C300004BF00207047016841F0010101600020DD
:102C4000704700BF0168002241F001010160104699
:102C5000704700BF10B5026801F01F0E4FF0010C65
:102C6000146A0CFA0EF324EA03031362136A41F2A6
:102C700011141362136A234204D1136A40F24444CC
:102C8000234219D0F1B108290ED004294FF00101D7
:102C900019BF80F8411080F8451080F83F1080F887
:102CA0004310002010BD00BF012180F8401080F8C3
:102CB0004410002010BD00BF136823F0010313600F
:102CC0000029E0D1012180F83E1080F84210002058
:102CD00010BD00BF61B1082916D0042919BF00F149
:102CE000410200F1450300F13F0200F143030FE010
:102CF00090F83E2090F84230012A4FF0010208BFC0
:102D0000012B1DD01046704700F1400200F1440332
:102D100012781B78012A4FF0010208BF012BF1D174
:102D20000222082918D0042922D180F83F2080F8F7
:102D300043204FEAB103032B4FF00102E2D821E018
:102D4000022280F83E2080F842204FEAB103032B94
:102D50004FF00102D6D815E080F8402080F84420DA
:102D60004FEAB103032B4FF00102CBD80AE000BFBA
:102D700080F8412080F845204FEAB103032B4FF043
:102D80000102BFD84CF6405C0068C0F6000C5CF84D
:102D900023C0C36801F01F0143EA0C03C360036A48
:102DA00002FA01F123EA01020262026A114340F2CF
:102DB000FF72C4F200029042016209DCB0F1804F60
:102DC00012D040F20041C4F2000188420CD019E058
:102DD00042F60041C4F20101884205D040F60001EC
:102DE000C4F2000188420DD1816801F00701062973
:102DF00004BF00207047016841F00101016000201C
:102E0000704700BF0168002241F0010101601046D7
:102E1000704700BF10B54FEAB102032A4FF0010C12
:102E200045D84CF6505E0368C0F6000E5EF822E00E
:102E3000DA6802EA0E02DA6001F01F0E1C6A0CFA70
:102E40000EF224EA02021A621A6A41F211141A629C
:102E50001A6A224208D11A6A40F24444224203D13B
:102E60001A6822F001021A6051B1082910D0042911
:102E700016D1012180F83F1080F84310002010BDCA
:102E8000012180F83E1080F84210002010BD00BFE4
:102E9000012180F8401080F84410002010BD00BFD0
:102EA00001214FF0000C80F8411080F84510604679
:102EB00010BD00BF70B5064641B108290CD00429E9
:102EC00010D106F13F0006F143040FE006F13E0089
:102ED00006F142040AE000BF06F1400006F1440496
:102EE00004E000BF06F1410006F1450405782478AE
:102EF000022D4FF0020018BF022C01D170BD00BF9F
:102F0000012D4FF0010008BF012CF7D1002A4FF02E
:102F1000010018BF002BF1D0022049B108290DD0C3
:102F2000042911D186F83F0086F8430010E000BF65
:102F300086F83E0086F842000AE000BF86F84000AE
:102F400086F8440004E000BF86F8410086F845009A
:102F5000D6F800C001F01F050120DCF8204000FA7F
:102F600005F5AC43CCF82040DCF820404FEAB10135
:102F700025430329CCF8205000F27C80DFE801F0E3
:102F8000021E3A56706A43F2C101C0F60001816226
:102F9000706A43F23911C0F60001C162706A41F6ED
:102FA0005101C0F600010163706A0CF1340104F0B4
:102FB000F5FA002852D14FF4007053E0B06A43F2A2
:102FC000C101C0F600018162B06A43F23911C0F656
:102FD0000001C162B06A41F65101C0F6000101630F
:102FE000B06A0CF1380104F0D9FAB8BB4FF4806034
:102FF00038E000BFF06A43F2C101C0F6000181620F
:10300000F06A43F23911C0F60001C162F06A41F67C
:103010005101C0F600010163F06A0CF13C0104F0BB
:10302000BDFAD8B94FF400601CE000BF306B43F22A
:10303000C101C0F600018162306B43F23911C0F664
:103040000001C162306B41F65101C0F6000101631D
:10305000306B0CF1400104F0A1FA08B1012070BD01
:103060004FF48050D6F800C0DCF80C100843CCF8C0
:103070000C00002040F2FF71C4F200018C4505DC19
:10308000BCF1804F0ED040F2004107E042F6004113
:10309000C4F201018C4505D040F60001C4F20001E4
:1030A0008C4506D1DCF8081001F00701062908BF9D
:1030B00070BDDCF8001041F00101CCF8001070BDCB
:1030C00010B5446A616A814212D0A16A814219D066
:1030D000E16A814220D0216B814226D1806908219A
:1030E000217710BB012084F8410084F845001CE0E2
:1030F000816901202077C1B984F83E0084F842003C
:1031000013E000BF80690221217770B9012084F8A3
:103110003F0084F8430008E080690421217720B94A
:10312000012084F8400084F84400204600F0D0FEDE
:103130000020207710BD00BF10B5446A616A81424B
:103140000AD0A16A814209D0E16A814208D0216B8C
:10315000814207D1082004E0012002E0022000E0C3
:1031600004202077204601F063FF0020207710BD67
:10317000B0B50D460168044605F01F0201200B6A38
:1031800000FA02F223EA02020A620B6A4FEAB5026F
:10319000032A0B6288BFB0BDDFE802F0020A121AF0
:1031A000C86820F40070C86004F1240016E000BF75
:1031B000C86820F48060C86004F128000EE000BFF9
:1031C000C86820F40060C86004F12C0006E000BF6D
:1031D000C86820F48050C86004F13000006804F032
:1031E0004FFA206841F21112016A114204D1016ABA
:1031F00040F24442114217D00120E5B1082D07D01A
:10320000042D0BD184F83F0084F843000020B0BDAA
:1032100084F8400084F844000020B0BD84F84100E8
:1032200084F845000020B0BD016821F00101016073
:103230000120002DE2D184F83E0084F842000020F5
:10324000B0BD00BF002804BF0120704770B5044620
:1032500090F83D000E4628B9002084F83C00204636
:1032600000F06AF8022084F83D00206840F2FF7305
:103270000268C4F2000342F6004C9842C4F2010C0A
:1032800014DCB0F1804F19D040F20041C4F20001CB
:10329000884213D0984217DCB0F1804F1CD040F226
:1032A0000041C4F20001884216D019E0604505D003
:1032B00040F60001C4F200018842EBD1A16822F07F
:1032C00070020A439842E7DD604505D040F60001F0
:1032D000C4F20001884203D1216922F440720A43FA
:1032E000A36922F080016268E568194360450160C6
:1032F000C562826202D16169CCF83010012141615E
:103300000269D20703D0026922F001020261026859
:1033100022F008020260026832430260002084F852
:10332000461084F83E1084F83F1084F8421084F868
:10333000431084F83D1070BD704700BF10B50446BF
:10334000022084F83D00206841F21112016A114206
:1033500008D1016A40F24442114203D1016821F0D0
:1033600001010160204600F011F80021002084F8DE
:10337000461084F83E1084F83F1084F8421084F818
:10338000431084F83D1084F83C1010BD704700BF16
:10339000014690F83E0091F83F2091F8423091F8B4
:1033A00043C001284FF0010008BF012A00D0704738
:1033B000012B18BF7047BCF1010FF8D1022081F832
:1033C0003E0081F83F0081F8420081F8430009681F
:1033D000086A20F001000862086A40F001000862F3
:1033E0000A6A42F6444022F010020A62C4F2010066
:1033F0000A6AA0F14403994242F010020A621CBF1B
:1034000000207047016841F40041016000207047CE
:103410000146006842F6444C026AC4F2010C22F0F4
:1034200001020262026A0262036AACF1440223F002
:1034300010030362036A9042036210D15CF8242CEB
:1034400041F211131A420AD1026A40F244431A426D
:1034500005D1DCF8002022F40042CCF80020026AFA
:1034600041F211131A4208D1026A40F244431A424F
:1034700003D1026822F0010202600122002081F8DB
:103480003E2081F83F2081F8422081F84320704798
:10349000014690F83E0091F83F2091F8423091F8B3
:1034A00043C001284FF0010008BF012A00D0704737
:1034B000012B18BF7047BCF1010FF8D1022081F831
:1034C0003E0081F83F0081F8420081F8430009681E
:1034D000C86840F00200C860C86840F00400C860D6
:1034E000086A20F001000862086A40F001000862E2
:1034F0000A6A42F6444022F010020A62C4F2010055
:103500000A6AA0F14403994242F010020A621CBF09
:1035100000207047016841F40041016000207047BD
:103520000146006842F6444CC268C4F2010C22F025
:103530000202C260C26822F00402C260026A22F083
:1035400001020262026A0262036AACF1440223F0E1
:1035500010030362036A9042036210D15CF8242CCA
:1035600041F211131A420AD1026A40F244431A424C
:1035700005D1DCF8002022F40042CCF80020026AD9
:1035800041F211131A4208D1026A40F244431A422E
:1035900003D1026822F0010202600122002081F8BA
:1035A0003E2081F83F2081F8422081F84320704777
:1035B000002804BF012070472DE9F04F81B0044678
:1035C00090F83D000D4628B9002084F83C002046C4
:1035D00000F09AF8022084F83D00206844F20702C7
:1035E000816840F2FF73914381600268C4F2000376
:1035F00042F6004C9842C4F2010C15DCB0F1804F49
:103600001AD040F20041C4F20001884214D098421E
:1036100018DCB0F1804F1DD040F20041C4F200012F
:10362000884217D01AE000BF604505D040F600017F
:10363000C4F200018842EAD1A16822F070020A4374
:103640009842E6DD604505D040F60001C4F2000175
:10365000884203D1216922F440720A43A36922F00F
:103660008001D4F804E0E268194360450160C26259
:10367000C0F828E002D16169CCF830104FF0010E9B
:10368000C0F814E00269D20703D0026922F00102F7
:10369000026182688369D0F820C0D5E90018D5E9B5
:1036A000027B41EA020AAA694FF6FF7923EA09037D
:1036B00047EA02224FF6FC47BA43D5E9077643EAC8
:1036C0000B0329691A4342EA072242EA01112CF04E
:1036D00022026B6942EA080241EA063142EA031219
:1036E000C0F808A08161026284F846E084F83EE0F8
:1036F00084F83FE084F842E084F843E084F83DE059
:10370000002001B0BDE8F08F704700BF10B504463F
:10371000022084F83D00206841F21112016A114232
:1037200008D1016A40F24442114203D1016821F0FC
:1037300001010160204600F011F80021002084F80A
:10374000461084F83E1084F83F1084F8421084F844
:10375000431084F83D1084F83C1010BD704700BF42
:1037600080B590F83E2090F83F3090F842E090F815
:1037700043C004290AD0B9B9012A4FF0010208BF99
:10378000BEF1010F34D0104680BD00BF012B4FF0B9
:10379000010208BFBCF1010FF5D1022180F83F10F2
:1037A00080F8431000681EE0012A4FF0010208BFB4
:1037B000012BE8D1BEF1010FE5D1BCF1010FE2D13F
:1037C000022280F83E2080F83F2080F8422080F8D6
:1037D000432091B10068016A21F001010162016A90
:1037E00041F00101016210216FF0100209E000BFF9
:1037F000022180F83E1080F84210006801216FF02D
:103800000102036A1A400262026A114301620168FE
:10381000002241F001010160104680BD042905D05D
:1038200031B902686FF0010C0BE000BF026806E0DE
:103830000268136A23F001031362136A13626FF0C4
:10384000100C136A03EA0C031362136A1362D2F8B2
:1038500020C041F211131CEA030F06D1D2F820C098
:1038600040F244431CEA030F0ED06FF004021142F1
:1038700012D0012180F83E1080F83F1080F84210ED
:1038800080F8431000207047136823F00103136091
:103890006FF004021142ECD104290DD000294FF041
:1038A000010119BF80F8411080F8451080F83E10E2
:1038B00080F8421000207047012180F83F1080F806
:1038C00043100020704700BF80B590F83E2090F86C
:1038D0003F3090F842E090F843C004290AD0F9B98B
:1038E000012A4FF0010208BFBEF1010F46D0104679
:1038F00080BD00BF012B4FF0010208BFBCF1010FDA
:10390000F5D1022180F83F1080F843100068016A69
:1039100021F010010162016A41F0100101622AE008
:10392000012A4FF0010208BF012BE0D1BEF1010FC7
:10393000DDD1BCF1010FDAD1022280F83E2080F8FF
:103940003F2080F8422080F84320E1B10068016AFE
:1039500021F001010162016A41F001010162016A85
:1039600021F010010162016A41F010010162C16899
:1039700041F00201C16004210FE000BF022180F884
:103980003E1080F842100068016A21F001010162D6
:10399000016A41F0010101620221C2681143C16064
:1039A0000168002241F001010160104680BD00BFA6
:1039B00051B102680429136A10D123F01003136275
:1039C000136A136219E000BF02686FF0020C136AF9
:1039D00023F001031362136A136210E023F0010362
:1039E0001362136A1362136A23F010031362136ADB
:1039F0001362D36823F00203D3606FF0040CD36822
:103A000003EA0C03D360D2F820C041F211131CEA80
:103A1000030F06D1D2F820C040F244431CEA030F42
:103A20000ED06FF00402114212D0012180F83E1036
:103A300080F83F1080F8421080F843100020704753
:103A4000136823F0010313606FF004021142ECD1FC
:103A500041B104290ED1012180F83F1080F84310B4
:103A600000207047012180F83E1080F842100020AD
:103A7000704700BF012180F8411080F845100020F8
:103A8000704700BF2DE9F04381B09946DDF82080F2
:103A900090F83E6090F83F7090F8425090F84330B4
:103AA0000446042946D0002940F08E80022E4FF0B3
:103AB000020018BF022D00F0A280012E4FF001007D
:103AC00008BF012D40F09B80002A4FF0010018BF75
:103AD000B8F1000F00F09380022084F83E0084F8D3
:103AE0004200606A43F2C103C0F600038362606A69
:103AF00043F23913C0F60003C362606A41F6510312
:103B0000C0F6000321680363606A3431434603F062
:103B100045FD002840F0AC802068C16841F4007188
:103B2000C160016A21F001010162016A41F00101F5
:103B300040E000BF022F4FF0020018BF022B5ED002
:103B4000012F4FF0010008BF012B58D1B9F1000F30
:103B50004FF0010018BFB8F1000F50D0022084F8D8
:103B60003F0084F84300A06A43F2C102C0F600029D
:103B70008262A06A43F23912C0F60002C262A06AF1
:103B800041F65102C0F6000221680263A06A383192
:103B90004A46434603F002FD002869D12068C16807
:103BA00041F48061C160016A21F010010162016A83
:103BB00041F010010162016841F001010160002043
:103BC00001B0BDE8F08300BF022E4FF0020018BF25
:103BD000022F14D0022D12D0022B10D0012E4FF044
:103BE000010008BF012F0AD1012D08D1012B06D1F8
:103BF000002A4FF0010018BFB9F1000F02D101B047
:103C0000BDE8F083B8F1000FF9D00220002984F854
:103C10003E0084F83F0084F8420084F843003FF4FB
:103C200060AF606A43F2C105C0F600058562606A54
:103C300043F23916C0F60006C662606A41F65107C3
:103C4000C0F6000721680763606A3431434603F019
:103C5000A5FC68B9A06A21688562A06A3831C6628D
:103C6000A06A4A460763A06A434603F097FC18B16E
:103C7000012001B0BDE8F0832068C16841F4007103
:103C8000C160C16841F48061C160016A21F0010135
:103C90000162016A41F001010162016A21F0100133
:103CA0000162016A41F0100184E700BFB0B50D4622
:103CB000044669B12068042D016A17D121F0100172
:103CC0000162016A0162C16821F48061C16023E080
:103CD000204650F8241B0A6A22F001020A620A6A8E
:103CE0000A62CA6822F40072CA6017E021F001017A
:103CF0000162016A0162016A21F010010162016A38
:103D00000162C16821F40071C160C16821F4806161
:103D1000C160606A03F0B4FC04F12800006803F09D
:103D2000AFFC206841F21112016A114204D1016A0C
:103D300040F2444211420FD06FF00400054213D00C
:103D4000012084F83E0084F83F0084F8420084F8A3
:103D500043000020B0BD00BF016821F001010160F7
:103D60006FF004000542EBD101203DB1042D0BD1D1
:103D700084F83F0084F843000020B0BD84F83E0082
:103D800084F842000020B0BD84F8410084F845006A
:103D90000020B0BDB0B504460068C168026902EAFF
:103DA0000105A90720D4680734D428074AD4E806B7
:103DB00060D4E80777D1280600F17F80680606D531
:103DC00020686FF040010161204600F089F8A806E4
:103DD00058BFB0BD21686FF0200220460A61BDE8DF
:103DE000B04002F0B1BB00BF6FF0020101610121E0
:103DF00021778069800703D0204600F069F805E04C
:103E0000204600F067F8204600F066F80020207792
:103E10006807CAD520686FF004010161022121778B
:103E2000806910F4407F03D0204600F051F805E08F
:103E3000204600F04FF8204600F04EF80020207792
:103E40002807B4D520686FF00801016104212177AB
:103E5000C069800704D0204600F03AF806E000BFB1
:103E6000204600F037F8204600F036F80020207792
:103E7000E8069ED520686FF01001016108212177C6
:103E8000C06910F4407F03D0204600F021F805E01F
:103E9000204600F01FF8204600F01EF80020207792
:103EA000E8073FF488AF20686FF001010161204608
:103EB00000F014F828067FF581AF20686FF08001CC
:103EC0000161204602F044FB68067FF580AF77E78A
:103ED000704700BF704700BF704700BF704700BF0A
:103EE000704700BF2DE9F04190F83C30012B04BF32
:103EF0000220BDE8F0814FEAB202032A30D8DFE8A1
:103F000002F00337679700BF026842F60045146A63
:103F1000136AC4F2010523F0010313625368D2F857
:103F200018C0AA428D68D1F800E024F0020444EAE7
:103F300005040BD1CD68D1E9056723F4407324F063
:103F40000C0425F0040533432C433B432CF073074A
:103F500047EA0E07536097614968516314628BE02A
:103F60000121002280F83C200846BDE8F08100BF16
:103F7000026842F60045146A136AC4F2010523F090
:103F8000100313625368D2F818C0AA428D68D1F8A2
:103F900000E024F0200444EA05140FD1CD68D1E9F3
:103FA00005876FF0400623F4406324F0C00406EA5E
:103FB000051543EA88032C4343EA87032CF4E647BC
:103FC00047EA0E275360976149689163146253E092
:103FD000026842F60045146A136AC4F2010523F42C
:103FE000807313625368D2F81CC0AA428D68D1F85E
:103FF00000E024F4007444EA05240FD1CD68D1E92F
:1040000005872D0240F2FF4623F4405324F4406418
:10401000B54343EA08132C4343EA07132CF0730714
:1040200047EA0E075360D7614968D163146223E001
:10403000026842F60046D2F820C0136AC4F20106B4
:1040400023F4805313625368D4690D68D1F808E0F3
:10405000B24204D14E6923F4804343EA861324F428
:10406000E64646EA05265360D6612CF400574968B7
:1040700047EA0E33116413620021002280F83C20CD
:104080000846BDE8F08100BFF0B5036A026A42F657
:10409000004422F010020262C4F201044268D0F827
:1040A00018E0A0428C68D1F800C023F0200343EA56
:1040B00004130FD1CC68D1E905566FF0400722F404
:1040C000406223F0C00307EA041442EA8502234356
:1040D00042EA86022EF4E64747EA0C2742608761EF
:1040E000496881630362F0BDF0B590F83C30012B64
:1040F00004BF0220F0BD4FEAB202032A22D8DFE853
:1041000002F00327476500BF0368D1E900C5D1F875
:104110000CE01C6A1A6A40F2FF7722F001021A6270
:104120001A4652F8186FC4F20007BB4272DCB3F1B2
:10413000804F7BD040F20047C4F20007BB4275D0ED
:104140008EE000BF0121002280F83C200846F0BD2F
:104150000368D1E900E6D1E902C11C6A1A6A360295
:1041600022F010021A621A4652F8185F4FF2FF0747
:10417000BE4325F4734561F30F3624F0A0040EF01E
:104180000A0746EA050144EA071711601F623AE090
:104190000768D1E900C5D1E902313C6A3A6A61F3A6
:1041A000071522F480723A623A4652F81C6F26F0E4
:1041B000F30645EA0601CCF3560666F3492411607E
:1041C0003C62116821F00C01116040E00368D1E904
:1041D00000E6D1E902C11C6A1A6A360222F4805252
:1041E0001A621A4652F81C5F4FF2FF07BE4325F4CD
:1041F000734561F30F36CEF3520746EA050167F3C4
:104200004D3411601C6211684FEA0C2321F44061A7
:1042100011601CE042F60047C4F20107BB4205D022
:1042200040F60007C4F20007BB4219D126F003068E
:10423000354324F00A070CF00A066EF307153744DD
:104240009D611F629F6927F00C079F618B68116851
:10425000194311600021002280F83C200846F0BD7F
:1042600046F00105E5E700BF10B5D0F820C0D0F852
:1042700020E040F2FF742EF0010EC0F820E0D0F8EC
:1042800018E0C4F20004A0420ADCB0F1804F13D061
:1042900040F20044C4F20004A0420DD01AE000BF76
:1042A00042F60044C4F20104A04205D040F60004E6
:1042B000C4F20004A0420DD12EF00304224363F3A4
:1042C00007122CF00A0301F00A011944826101620D
:1042D00010BD00BF4EF00102F1E700BF2DE9F04331
:1042E00090F83C30012B04BF0220BDE8F0834FEA78
:1042F000B202032A3CD8DFE802F003437FB900BFD3
:10430000036842F600461D6A1A6AC4F2010622F0EA
:1043100001021A621A465C6852F818CFB3428E68DE
:10432000D1F800E025F0020545EA06050CD1CE687B
:10433000D1E9057824F4407425F00C0526F0040634
:104340003C43354344EA08042CF0730747EA0E0760
:104350005C609F614F6809695F631D629F6947F0F8
:1043600008079F619F6927F004079F61AEE000BFC7
:104370000121002280F83C200846BDE8F08300BF00
:10438000036842F600461D6A1A6AC4F2010622F06A
:1043900010021A621A46D3F804C052F8184FB342FA
:1043A0008E68D1F800E025F0200545EA06150FD10A
:1043B000CE68D1E905986FF0400707EA06162CF49D
:1043C000406725F0C00547EA8907354347EA880C6E
:1043D00024F4E64444EA0E27C3F804C09F614F6802
:1043E00009699F631D629F6947F400679F619F6928
:1043F00027F480679F6168E0036842F600461D6A03
:104400001A6AC4F2010622F480721A621A46D3F8BC
:1044100004C052F81CEFB3428E680C6825F4007596
:1044200045EA06250FD1CE68D1E90598360240F25B
:10443000FF47BE432CF4405725F4406547EA09176F
:10444000354347EA081C2EF073072743C3F804C01E
:10445000DF614F680969DF631D62DF6947F00807A4
:10446000DF61DF6927F00407DF612FE0036842F6B0
:104470000047D3F820C01A6AC4F2010722F4805220
:104480001A621A465C6852F81C5FD1F800E08E6828
:10449000BB4204D14F6924F4804444EA87142CF4CD
:1044A000005747EA063725F4E64646EA0E265C60E2
:1044B000DE614E6809691E641F62DF6947F40067A8
:1044C000DF61DF6927F48067DF6109021368194340
:1044D00011600021002280F83C200846BDE8F083EE
:1044E0002DE9F04F9A4204BF0120BDE8F08F90F80B
:1044F0003C704FF0020C012F00F0E08080F83DC0CE
:10450000D1E900ECD1E90276D1E9048A042A4BD042
:10451000002A45D10268156A146A24F00104146265
:1045200042F60044C4F20104D2F804B0A242D2F828
:10453000189025F0020447EA04070BD127F00C0479
:1045400026F0040544EA05072BF440744AEA0805FE
:1045500045EA040B29F0730444EA0E06C2F804B0DD
:104560009661C2F834C0042B17624BD0C3B9D1E9AD
:104570000637096A166A156A40F2FF7425F00105CC
:1045800015629569C4F20004A24263DCB2F1804F67
:104590006CD040F20044C4F20004A24266D091E024
:1045A0004FF0010C84E000BF0268156A146A24F021
:1045B0001004146242F60044C4F20104D2F804B0BC
:1045C000A242D2F8189025F0200444EA07170DD132
:1045D0006FF0400527F0C00405EA061544EA050718
:1045E0002BF440644AEA080544EA850B29F4E644C2
:1045F00044EA0E26C2F804B09661C2F838C0042B13
:104600001762B3D1D1E90637096A166A156A3F0203
:1046100025F01005156295694FF2FF04A74325F4B4
:10462000734561F30F3747EA050126F0A00703F051
:104630000A0347EA031391611362916921F440610F
:104640009161916821F070019160916841F0600181
:1046500023E000BF42F60044C4F20104A24205D0A8
:1046600040F60004C4F20004A2422BD125F0030559
:104670002F4361F3071726F00A0103F00A031944D8
:1046800097611162916921F00C019161916821F0AB
:1046900070019160916841F05001916091684FF014
:1046A000000C21F007019160916841F006019160D2
:1046B000012180F83D10002180F83C106046BDE8E3
:1046C000F08F00BF45F00107D3E700BF80B582B08F
:1046D000DDF810C04FF0010E0EEB1C2ECDE900CE20
:1046E00000F002F802B080BDF0B581B0054690F848
:1046F0004600022802D1022001B0F0BD95F8460024
:10470000069F14460E46012806D113B9002F40F02B
:10471000C080022085F84600DDF81CC0B4F5006FAB
:104720004FF001001EDBB4F5005F3BDAB4F5006F1B
:1047300052D0B4F5805F40F0B780286B42F241025E
:10474000C0F600028262286B42F2AD02C0F600029F
:10475000C262286B41F65102C0F60002026329686A
:10476000286B8FE0B4F5807F4CD0B4F5007F5FD02C
:10477000B4F5806F40F09880A86A42F24102C0F61A
:1047800000028262A86A42F2AD02C0F60002C26272
:10479000A86A41F65102C0F6000202632968A86ABD
:1047A00070E000BF5AD0B4F5804F7DD1A86B44F6BD
:1047B000AD02C0F600028262A86B44F6C102C0F6E8
:1047C0000002C262A86B41F65102C0F60002026309
:1047D0002968A86B56E000BFE86A42F24102C0F6C1
:1047E00000028262E86A42F2AD02C0F60002C262D2
:1047F000E86A41F65102C0F6000202632968E86ADD
:1048000040E000BF286A41F63502C0F6000282622D
:10481000286A41F64902C0F60002C262286A41F6DF
:104820005102C0F6000202632968286A2AE000BF2C
:10483000686A42F24102C0F600028262686A42F28D
:10484000AD02C0F60002C262686A41F65102C0F6CB
:10485000000202632968686A14E000BF686B46F2D0
:104860006542C0F600028262686B46F27142C0F691
:104870000002C262686B41F65102C0F60002026398
:104880002968686B01F14C021946634602F086FE06
:1048900010B1012001B0F0BD286847EA060181642B
:1048A000C1682143C160002001B0F0BD406A816B46
:1048B0008969002904BF012180F83D10FFF710BB72
:1048C000406A00F0B9BB00BFB0B50D460446B1F573
:1048D000006F4FF001000BDBB5F5005F14DAB5F5A2
:1048E000006F19D0B5F5805F2FD104F1300021E0C1
:1048F000B5F5807F14D0B5F5007F19D0B5F5806F80
:1049000023D104F1280015E00ED0B5F5804F18BF73
:10491000B0BD04F138000DE004F12C000AE000BF46
:1049200004F1200006E000BF04F1340002E000BF03
:1049300004F12400006802F0A3FE2068C168A943C6
:10494000C160012084F846000020B0BD80B582B06F
:10495000DDF810C04FF0010E0EEB1C2ECDE900CE9D
:1049600000F002F802B080BDF0B581B0054690F8C5
:104970004600022802D1022001B0F0BD95F84600A1
:10498000069F14460E46012806D113B9002F40F0A9
:10499000BF80022085F84600DDF81CC0B4F5006F2A
:1049A0004FF001001EDBB4F5005F3BDAB4F5006F99
:1049B00052D0B4F5805F40F0B780286B43F2C1025B
:1049C000C0F600028262286B43F23912C0F6000280
:1049D000C262286B41F65102C0F6000202632968E8
:1049E000286B8FE0B4F5807F4CD0B4F5007F5FD0AA
:1049F000B4F5806F40F09880A86A43F2C102C0F617
:104A000000028262A86A43F23912C0F60002C26252
:104A1000A86A41F65102C0F6000202632968A86A3A
:104A200070E000BF5AD0B4F5804F7DD1A86B44F63A
:104A3000AD02C0F600028262A86B44F6C102C0F665
:104A40000002C262A86B41F65102C0F60002026386
:104A50002968A86B56E000BFE86A43F2C102C0F6BD
:104A600000028262E86A43F23912C0F60002C262B2
:104A7000E86A41F65102C0F6000202632968E86A5A
:104A800040E000BF286A41F63502C0F600028262AB
:104A9000286A41F64902C0F60002C262286A41F65D
:104AA0005102C0F6000202632968286A2AE000BFAA
:104AB000686A43F2C102C0F600028262686A43F289
:104AC0003912C0F60002C262686A41F65102C0F6AD
:104AD000000202632968686A14E000BF686B46F24E
:104AE0006542C0F600028262686B46F27142C0F60F
:104AF0000002C262686B41F65102C0F60002026316
:104B00002968686B4C311A46634602F047FD18B1BC
:104B1000012001B0F0BD00BF286847EA06018164AA
:104B2000C1682143C160002001B0F0BDB0B50D46A1
:104B30000446B1F5006F4FF001000BDBB5F5005FE7
:104B400014DAB5F5006F19D0B5F5805F2FD104F1F7
:104B5000300021E0B5F5807F14D0B5F5007F19D085
:104B6000B5F5806F23D104F1280015E00ED0B5F51E
:104B7000804F18BFB0BD04F138000DE004F12C00E7
:104B80000AE000BF04F1200006E000BF04F1340099
:104B900002E000BF04F12400006802F071FD20680B
:104BA000C168A943C160012084F846000020B0BD5F
:104BB00090F83C20012A4FF0020209D080F83D20F5
:104BC000026851610121002280F83D1080F83C20EC
:104BD0001046704710B590F83C30012B4FF002039F
:104BE00060D080F83D304B68012B0DD073B9D0F800
:104BF00000C0DCF8083023F47F434FEAB202032AF6
:104C0000CCF8083016D946E0CB680BB1012343E05D
:104C1000D0F800C0D1F808E00B69DCF808404EEA93
:104C2000032324F47F4423434FEAB202032ACCF83F
:104C3000083030D8DFE802F0020E1A240A68DCF8E7
:104C40001810002A0CBF21F0800141F08001CCF83F
:104C5000181020E00A68DCF81810002A0CBF21F4B4
:104C6000004141F40041CCF8181014E00A68DCF867
:104C70001C10002A0CBF21F0800141F0800108E0E7
:104C80000A68DCF81C10002A0CBF21F4004141F432
:104C90000041CCF81C100023012180F83D100021B8
:104CA00080F83C10184610BDD0F808C011432CF411
:104CB0007F4C41EA032141EA0C018160704700BF4B
:104CC00080B590F83C20012A4FF0020200F0C2802B
:104CD00080F83D20D0F800C04FF67772DCF808303D
:104CE00023EA0202CCF808200B684F2B28DC1F2B8C
:104CF00044DD202B45D0302B43D0402B40F0AC80FE
:104D0000D1F804E0C968DCF82030DCF8202022F07B
:104D10000102CCF82020DCF8182022F0F00242EA50
:104D2000011123F00A0242EA0E02CCF81810CCF866
:104D30002020DCF8081041F0470121F0300180E02C
:104D40006F2B27DDB3F5005F48D0B3F5805F7AD0D5
:104D5000702B40F08180D1E901E3C968DCF80820BC
:104D600043EA0E0322F47F4243EA01211143CCF8C7
:104D70000810DCF8081041F0770162E00BB1102B4D
:104D80006AD1DCF8081021F07001194341F00701E5
:104D900057E000BF502B35D0602B5DD1D1F804E037
:104DA000C968DCF82030DCF8202022F01002CCF8B2
:104DB0002020DCF8182022F4704242EA013123F06E
:104DC000A00242EA0E12CCF81810CCF82020DCF831
:104DD000081041F0670121F0100132E0D1E901E350
:104DE000C968DCF8082043EA0E0322F47F4243EA54
:104DF00001211143CCF80810DCF8081041F480417F
:104E00001FE000BFD1F804E0C968DCF82030DCF80E
:104E1000202022F00102CCF82020DCF8182022F01B
:104E2000F00242EA011123F00A0242EA0E02CCF833
:104E30001810CCF82020DCF8081041F0570121F0C0
:104E40002001CCF808100022012180F83D1000213B
:104E500080F83C10104680BD0122F5E702685068DA
:104E600020F080000143002051607047B0B5044637
:104E700090F83C0001284FF0020008BFB0BD0125AA
:104E800084F83C5084F83D00206800F01BF80028AE
:104E90004FF0010006D0002184F83D5084F83C100A
:104EA000B0BD00BF2068C16821F04001C160C16889
:104EB00021F48041C1600020002184F83D5084F835
:104EC0003C10B0BD80B58268D1E900E322F0770CD8
:104ED00023F0070242EA0C0242EA0E0C4FEA3312B8
:104EE000072AC0F808C009D84FF0000CDFE802F02C
:104EF000040404040A1E344A604680BD4FF0010CCD
:104F0000604680BDBEF1050F04BF012080BD026A6E
:104F1000036A23F0010303628369096923F0F00344
:104F200043EA011181610262002080BDD1F808C00E
:104F30000969036A026A22F001020262826922F0B0
:104F4000F00242EA011123F00A0242EA0C028161F6
:104F50000262002080BD00BFD1F808C00969036A61
:104F6000026A22F010020262826922F4704242EA6E
:104F7000013123F0A00242EA0C128161026200209A
:104F800080BD00BFD1E902C30969826843EA0C030E
:104F900022F47F4243EA012111438160002080BD59
:104FA000B0B5044690F83C0001284FF0020008BF5D
:104FB000B0BD012584F83C5084F83D002068FFF71F
:104FC00081FF00284FF0010006D0002184F83D50F9
:104FD00084F83C10B0BD00BF2068C16841F04001BA
:104FE000C160C16821F48041C1600020002184F8C3
:104FF0003D5084F83C10B0BD4FEAB101032984BF95
:1050000000207047DFE801F0020E060A0068343025
:105010000068704700683C300068704700684030A6
:10502000006870470068383000687047704700BFFC
:10503000704700BF704700BF704700BF704700BF98
:1050400090F83D00704700BF90F83D00704700BFEA
:1050500090F83D00704700BF90F83D00704700BFDA
:1050600090F83D00704700BF90F83D00704700BFCA
:10507000007F7047082907D0042909D0002914BFF0
:1050800041303E300078704740300078704700BFB4
:105090003F300078704700BF90F84600704700002E
:1050A00070B588B000285BD0044690F83D000D46EE
:1050B00028B9002084F83C00204600F055F8022072
:1050C00084F83D002068211DFCF71CFA206829683F
:1050D000AB680322FFF7C8F820680026816921F039
:1050E0000C0181616968826911438161416841F005
:1050F00080014160816821F070018160816841F028
:1051000040018160816821F007018160816841F080
:105110000401816070210191E968CDE90566CDE95E
:10512000021601A907960496FEF7AEFF20684168B3
:1051300021F070014160416841F05001416001205F
:1051400084F8460084F83E0084F83F0084F842006A
:1051500084F8430084F83D00304608B070BD00BFBD
:105160000126304608B070BD704700BF10B5044638
:10517000022084F83D00206841F21112016A1142B8
:1051800008D1016A40F24442114203D1016821F082
:1051900001010160204600F011F80021002084F890
:1051A000461084F83E1084F83F1084F8421084F8CA
:1051B000431084F83D1084F83C1010BD704700BFC8
:1051C00010B5044690F83E0094F83F3094F8422021
:1051D00094F8431001284FF0010008BF012B01D0C3
:1051E00010BD00BF012AFBD1012918BF10BD02204C
:1051F00084F83E0084F83F0084F8420084F84300BD
:10520000206800210122FCF799FC206840F2FF7120
:10521000C4F20001884209DCB0F1804F12D040F2A4
:105220000041C4F2000188420CD012E042F6004175
:10523000C4F20101884205D040F60001C4F2000129
:10524000884206D1816801F00701062904BF0020C9
:1052500010BD016841F001010160002010BD00BFD8
:1052600010B50446006800210022FCF767FC2068A6
:1052700041F21112016A114208D1016A40F244421E
:10528000114203D1016821F00101016001210020D8
:1052900084F83E1084F83F1084F8421084F84310DC
:1052A00010BD00BF10B5044690F83E0094F83F30A2
:1052B00094F8422094F8431001284FF0010008BFF1
:1052C000012B01D010BD00BF012AFBD1012918BF5D
:1052D00010BD022084F83E0084F83F0084F84200AC
:1052E00084F8430020680122C16841F00201C160D6
:1052F0000021FCF723FC206840F2FF71C4F200019A
:10530000884209DCB0F1804F12D040F20041C4F273
:10531000000188420CD012E042F60041C4F20101C3
:10532000884205D040F60001C4F20001884206D14F
:10533000816801F00701062904BF002010BD016843
:1053400041F001010160002010BD00BF10B504460E
:10535000006800210022FCF7F1FB206841F21112E5
:10536000C16821F00201C160016A114208D1016ADD
:1053700040F24442114203D1016821F00101016071
:105380000121002084F83E1084F83F1084F8421078
:1053900084F8431010BD00BFF0B581B00F4690F8FF
:1053A0003E10044690F8420002294FF0020518BF53
:1053B000022803D1284601B0F0BD00BF01294FF0FB
:1053C000010508BF0128F5D1002F4FF00105F1D0EC
:1053D0001646002AEED0022084F83E0084F84200EF
:1053E0002068002101220125FCF7A8FB606A43F236
:1053F000C102C0F600028262606A43F23912C0F64E
:105400000002C262606A41F65102C0F600022168E1
:105410000263606A34313A46334602F0BFF800282E
:10542000C8D1206840F2FF72C168C4F2000241F4A2
:1054300000719042C16005DCB0F1804F0ED040F2A7
:10544000004107E042F60041C4F20101884205D064
:1054500040F60001C4F20001884209D1816801F0E0
:105460000701062904D10025284601B0F0BD00BF80
:105470000168002541F001010160284601B0F0BD3E
:1054800010B50446006800210022FCF757FB216894
:10549000606ACA6822F40072CA6002F0F1F82068FB
:1054A00041F21112016A114208D1016A40F24442EC
:1054B000114203D1016821F00101016001210020A6
:1054C00084F83E1084F8421010BD00BF41B1082995
:1054D00010D0042914BF00F1450200F143020BE093
:1054E00090F84220012A1CBF01207047022280F858
:1054F000422013E000F144021278012A1CBF01206F
:1055000070470222082907D0042914BF80F84520DB
:1055100080F8432002E000BF80F84420006801F0DA
:105520000F010422036A02FA01F123EA0102026276
:10553000026A11430162416C40F2FF72C4F2000240
:1055400041F40041904241640ADCB0F1804F13D035
:1055500040F20041C4F2000188420DD013E000BFC8
:1055600042F60041C4F20101884205D040F6000134
:10557000C4F20001884206D1816801F007010629C2
:1055800004BF00207047016841F001010160002064
:10559000704700BF10B5026801F00F0E4FF0040C09
:1055A000146A0CFA0EF324EA03031362136A1362FB
:1055B000146A41F211131C4206D1D2F820C040F205
:1055C00044441CEA040F0DD0146A1C4211D1136A22
:1055D00040F2444423420CD1136823F001031360CA
:1055E00007E000BF546C24F400445464146A1C4265
:1055F000EDD008290CD0042910D000294FF001016A
:1056000014BF80F8451080F84210002010BD00BF84
:10561000012180F84410002010BD00BF012180F856
:105620004310002010BD00BF41B1082910D004294B
:1056300014BF00F1450200F143020BE090F8422054
:10564000012A1CBF01207047022280F8422013E08B
:1056500000F144021278012A1CBF0120704708297A
:1056600006D0042946D1022280F84320042203E018
:10567000022280F8442008220068C3681A43C260EE
:10568000C26842F08002C2600422036A02FA01F199
:1056900023EA01020262026A11430162416C40F294
:1056A000FF72C4F2000241F400419042416409DCFF
:1056B000B0F1804F12D040F20041C4F200018842A4
:1056C0000CD010E042F60041C4F20101884205D03E
:1056D00040F60001C4F20001884204D1816801F063
:1056E0000701062903D0016841F001010160002093
:1056F000704700BF022180F845100120704700BFAD
:1057000080B549B108290BD004291CBF012080BDF8
:105710006FF0040C06E000BF6FF0020C02E000BF67
:105720006FF0080C0268D36803EA0C03D3604FF0F3
:10573000040CD2F820E00CFA01F32EEA0303136202
:10574000136A1362D2F820C040F244431CEA030FEC
:1057500006D0136A41F2111C13EA0C0F11D109E0B3
:10576000D36823F08003D360136A41F2111C13EA5B
:105770000C0F06D1D2F820E040F244431EEA030F9A
:1057800010D0136A13EA0C0F14D1D2F820C040F2E3
:1057900044431CEA030F0DD1136823F00103136087
:1057A00008E000BF536C23F400435364136A13EA08
:1057B0000C0FEAD008290BD004290FD000294FF094
:1057C000010114BF80F8451080F84210002080BD10
:1057D000012180F84410002080BD00BF012180F825
:1057E0004310002080BD00BFB0B50C46054649B14E
:1057F000082C15D0042C14BF05F1450005F1430019
:1058000010E000BF95F84200022804BF0220B0BD9E
:1058100005F142000078012840F0C6801AE000BF80
:1058200005F144000078022804BF0220B0BD082C16
:105830000AD0042C14BF05F1450005F1430000789F
:10584000012840F0B18005E005F14400007801280E
:1058500040F0AA80002A4FF0010018BF002B01D1B0
:10586000B0BD00BF02203CB3082C00F07F80042CA8
:1058700040F09C8085F84300A86A45F6BD11C0F64B
:1058800000018162A86A42F2AD01C0F60001C16266
:10589000A86A45F61121D5F800C0C0F600010163E1
:1058A000A86A0CF1380C1146624601F077FE002818
:1058B0007AD14FF4806122E085F84200686A45F6AB
:1058C000BD11C0F600018162686A42F2AD01C0F606
:1058D0000001C162686A45F61121D5F800C0C0F622
:1058E00000010163686A0CF1340C1146624601F054
:1058F00055FE00281CBF0120B0BD4FF40071286880
:10590000C2681143C1600421026AA1408A43026255
:10591000026A11430162416C40F2FF72C4F200025C
:1059200041F400419042416406DCB0F1804F0FD059
:1059300040F2004108E000BF42F60041C4F201011C
:10594000884205D040F60001C4F20001884206D129
:10595000816801F00701062904BF0020B0BD01687D
:1059600041F0010101600020B0BD00BF85F8440096
:10597000E86A45F6BD11C0F600018162E86A42F2AC
:10598000AD01C0F60001C162E86A45F61121D5F803
:1059900000C0C0F600010163E86A0CF13C0C11463E
:1059A000624601F0FBFD28B10120B0BD85F845003D
:1059B0000120B0BD4FF40061A1E700BF10B5446AFB
:1059C000616A81420ED0A16A814213D0E16A8142AC
:1059D00017D1806904210028217704BF012084F8B1
:1059E00044000EE0816901200029207708BF84F877
:1059F000420006E080690221217710B9012084F875
:105A000043002046FEF768FA0020207710BD00BF53
:105A100010B5446A616A81420CD0A16A81420FD0FC
:105A2000E16A814211D104202077012084F84400EA
:105A30000BE000BF0120207784F8420005E000BFA2
:105A400002202077012084F843002046FFF7F6FA71
:105A50000020207710BD00BFB0B50D4608290446D0
:105A60000CD0042D12D0002D1CBF0120B0BD20464B
:105A700050F8241BCA6822F400720DE0204650F84A
:105A80002C1BCA6822F4006206E000BF204650F8D2
:105A9000281BCA6822F48062CA60006801F0F0FD29
:105AA00020680421026AA94022EA01010162016A18
:105AB0000162026A41F211110A4204D1026A40F203
:105AC00044431A420CD0026A0A4210D1016A40F2E1
:105AD000444211420BD1016821F00101016006E04E
